{
  "contractName": "Kudos",
  "abi": [
    {
      "constant": true,
      "inputs": [],
      "name": "name",
      "outputs": [
        {
          "name": "",
          "type": "string"
        }
      ],
      "payable": false,
      "stateMutability": "view",
      "type": "function"
    },
    {
      "constant": true,
      "inputs": [
        {
          "name": "_tokenId",
          "type": "uint256"
        }
      ],
      "name": "getApproved",
      "outputs": [
        {
          "name": "",
          "type": "address"
        }
      ],
      "payable": false,
      "stateMutability": "view",
      "type": "function"
    },
    {
      "constant": false,
      "inputs": [
        {
          "name": "_to",
          "type": "address"
        },
        {
          "name": "_tokenId",
          "type": "uint256"
        }
      ],
      "name": "approve",
      "outputs": [],
      "payable": false,
      "stateMutability": "nonpayable",
      "type": "function"
    },
    {
      "constant": true,
      "inputs": [],
      "name": "totalSupply",
      "outputs": [
        {
          "name": "",
          "type": "uint256"
        }
      ],
      "payable": false,
      "stateMutability": "view",
      "type": "function"
    },
    {
      "constant": false,
      "inputs": [
        {
          "name": "_from",
          "type": "address"
        },
        {
          "name": "_to",
          "type": "address"
        },
        {
          "name": "_tokenId",
          "type": "uint256"
        }
      ],
      "name": "transferFrom",
      "outputs": [],
      "payable": false,
      "stateMutability": "nonpayable",
      "type": "function"
    },
    {
      "constant": true,
      "inputs": [
        {
          "name": "_owner",
          "type": "address"
        },
        {
          "name": "_index",
          "type": "uint256"
        }
      ],
      "name": "tokenOfOwnerByIndex",
      "outputs": [
        {
          "name": "",
          "type": "uint256"
        }
      ],
      "payable": false,
      "stateMutability": "view",
      "type": "function"
    },
    {
      "constant": false,
      "inputs": [
        {
          "name": "_from",
          "type": "address"
        },
        {
          "name": "_to",
          "type": "address"
        },
        {
          "name": "_tokenId",
          "type": "uint256"
        }
      ],
      "name": "safeTransferFrom",
      "outputs": [],
      "payable": false,
      "stateMutability": "nonpayable",
      "type": "function"
    },
    {
      "constant": true,
      "inputs": [
        {
          "name": "_tokenId",
          "type": "uint256"
        }
      ],
      "name": "exists",
      "outputs": [
        {
          "name": "",
          "type": "bool"
        }
      ],
      "payable": false,
      "stateMutability": "view",
      "type": "function"
    },
    {
      "constant": true,
      "inputs": [
        {
          "name": "_index",
          "type": "uint256"
        }
      ],
      "name": "tokenByIndex",
      "outputs": [
        {
          "name": "",
          "type": "uint256"
        }
      ],
      "payable": false,
      "stateMutability": "view",
      "type": "function"
    },
    {
      "constant": true,
      "inputs": [
        {
          "name": "_tokenId",
          "type": "uint256"
        }
      ],
      "name": "ownerOf",
      "outputs": [
        {
          "name": "",
          "type": "address"
        }
      ],
      "payable": false,
      "stateMutability": "view",
      "type": "function"
    },
    {
      "constant": true,
      "inputs": [
        {
          "name": "_owner",
          "type": "address"
        }
      ],
      "name": "balanceOf",
      "outputs": [
        {
          "name": "",
          "type": "uint256"
        }
      ],
      "payable": false,
      "stateMutability": "view",
      "type": "function"
    },
    {
      "constant": false,
      "inputs": [],
      "name": "renounceOwnership",
      "outputs": [],
      "payable": false,
      "stateMutability": "nonpayable",
      "type": "function"
    },
    {
      "constant": true,
      "inputs": [
        {
          "name": "",
          "type": "uint256"
        }
      ],
      "name": "kudos",
      "outputs": [
        {
          "name": "name",
          "type": "string"
        },
        {
          "name": "description",
          "type": "string"
        },
        {
          "name": "rarity",
          "type": "uint256"
        },
        {
          "name": "price",
          "type": "uint256"
        },
        {
          "name": "numClonesAllowed",
          "type": "uint256"
        },
        {
          "name": "numClonesInWild",
          "type": "uint256"
        },
        {
          "name": "ownerAddress",
          "type": "address"
        },
        {
          "name": "tags",
          "type": "string"
        },
        {
          "name": "image",
          "type": "string"
        },
        {
          "name": "clonedFromId",
          "type": "uint256"
        }
      ],
      "payable": false,
      "stateMutability": "view",
      "type": "function"
    },
    {
      "constant": true,
      "inputs": [],
      "name": "owner",
      "outputs": [
        {
          "name": "",
          "type": "address"
        }
      ],
      "payable": false,
      "stateMutability": "view",
      "type": "function"
    },
    {
      "constant": true,
      "inputs": [],
      "name": "symbol",
      "outputs": [
        {
          "name": "",
          "type": "string"
        }
      ],
      "payable": false,
      "stateMutability": "view",
      "type": "function"
    },
    {
      "constant": false,
      "inputs": [
        {
          "name": "_to",
          "type": "address"
        },
        {
          "name": "_approved",
          "type": "bool"
        }
      ],
      "name": "setApprovalForAll",
      "outputs": [],
      "payable": false,
      "stateMutability": "nonpayable",
      "type": "function"
    },
    {
      "constant": false,
      "inputs": [
        {
          "name": "_from",
          "type": "address"
        },
        {
          "name": "_to",
          "type": "address"
        },
        {
          "name": "_tokenId",
          "type": "uint256"
        },
        {
          "name": "_data",
          "type": "bytes"
        }
      ],
      "name": "safeTransferFrom",
      "outputs": [],
      "payable": false,
      "stateMutability": "nonpayable",
      "type": "function"
    },
    {
      "constant": true,
      "inputs": [
        {
          "name": "_tokenId",
          "type": "uint256"
        }
      ],
      "name": "tokenURI",
      "outputs": [
        {
          "name": "",
          "type": "string"
        }
      ],
      "payable": false,
      "stateMutability": "view",
      "type": "function"
    },
    {
      "constant": true,
      "inputs": [
        {
          "name": "_owner",
          "type": "address"
        },
        {
          "name": "_operator",
          "type": "address"
        }
      ],
      "name": "isApprovedForAll",
      "outputs": [
        {
          "name": "",
          "type": "bool"
        }
      ],
      "payable": false,
      "stateMutability": "view",
      "type": "function"
    },
    {
      "constant": false,
      "inputs": [
        {
          "name": "_newOwner",
          "type": "address"
        }
      ],
      "name": "transferOwnership",
      "outputs": [],
      "payable": false,
      "stateMutability": "nonpayable",
      "type": "function"
    },
    {
      "anonymous": false,
      "inputs": [
        {
          "indexed": true,
          "name": "previousOwner",
          "type": "address"
        }
      ],
      "name": "OwnershipRenounced",
      "type": "event"
    },
    {
      "anonymous": false,
      "inputs": [
        {
          "indexed": true,
          "name": "previousOwner",
          "type": "address"
        },
        {
          "indexed": true,
          "name": "newOwner",
          "type": "address"
        }
      ],
      "name": "OwnershipTransferred",
      "type": "event"
    },
    {
      "anonymous": false,
      "inputs": [
        {
          "indexed": true,
          "name": "_from",
          "type": "address"
        },
        {
          "indexed": true,
          "name": "_to",
          "type": "address"
        },
        {
          "indexed": false,
          "name": "_tokenId",
          "type": "uint256"
        }
      ],
      "name": "Transfer",
      "type": "event"
    },
    {
      "anonymous": false,
      "inputs": [
        {
          "indexed": true,
          "name": "_owner",
          "type": "address"
        },
        {
          "indexed": true,
          "name": "_approved",
          "type": "address"
        },
        {
          "indexed": false,
          "name": "_tokenId",
          "type": "uint256"
        }
      ],
      "name": "Approval",
      "type": "event"
    },
    {
      "anonymous": false,
      "inputs": [
        {
          "indexed": true,
          "name": "_owner",
          "type": "address"
        },
        {
          "indexed": true,
          "name": "_operator",
          "type": "address"
        },
        {
          "indexed": false,
          "name": "_approved",
          "type": "bool"
        }
      ],
      "name": "ApprovalForAll",
      "type": "event"
    },
    {
      "constant": false,
      "inputs": [
        {
          "name": "name",
          "type": "string"
        },
        {
          "name": "description",
          "type": "string"
        },
        {
          "name": "rarity",
          "type": "uint256"
        },
        {
          "name": "price",
          "type": "uint256"
        },
        {
          "name": "numClonesAllowed",
          "type": "uint256"
        },
        {
          "name": "tags",
          "type": "string"
        },
        {
          "name": "image",
          "type": "string"
        }
      ],
      "name": "mint",
      "outputs": [
        {
          "name": "tokenId",
          "type": "uint256"
        }
      ],
      "payable": true,
      "stateMutability": "payable",
      "type": "function"
    },
    {
      "constant": false,
      "inputs": [
        {
          "name": "name",
          "type": "string"
        },
        {
          "name": "numClonesRequested",
          "type": "uint256"
        }
      ],
      "name": "clone",
      "outputs": [],
      "payable": true,
      "stateMutability": "payable",
      "type": "function"
    },
    {
      "constant": false,
      "inputs": [
        {
          "name": "name",
          "type": "string"
        },
        {
          "name": "numClonesRequested",
          "type": "uint256"
        },
        {
          "name": "receiver",
          "type": "address"
        }
      ],
      "name": "cloneAndTransfer",
      "outputs": [],
      "payable": true,
      "stateMutability": "payable",
      "type": "function"
    },
    {
      "constant": false,
      "inputs": [
        {
          "name": "owner",
          "type": "address"
        },
        {
          "name": "tokenId",
          "type": "uint256"
        }
      ],
      "name": "burnGen0",
      "outputs": [],
      "payable": true,
      "stateMutability": "payable",
      "type": "function"
    },
    {
      "constant": false,
      "inputs": [
        {
          "name": "owner",
          "type": "address"
        },
        {
          "name": "tokenId",
          "type": "uint256"
        }
      ],
      "name": "burn",
      "outputs": [],
      "payable": true,
      "stateMutability": "payable",
      "type": "function"
    },
    {
      "constant": true,
      "inputs": [
        {
          "name": "tokenId",
          "type": "uint256"
        }
      ],
      "name": "getKudosById",
      "outputs": [
        {
          "name": "name",
          "type": "string"
        },
        {
          "name": "description",
          "type": "string"
        },
        {
          "name": "rarity",
          "type": "uint256"
        },
        {
          "name": "price",
          "type": "uint256"
        },
        {
          "name": "numClonesAllowed",
          "type": "uint256"
        },
        {
          "name": "numClonesInWild",
          "type": "uint256"
        },
        {
          "name": "ownerAddress",
          "type": "address"
        },
        {
          "name": "tags",
          "type": "string"
        },
        {
          "name": "image",
          "type": "string"
        },
        {
          "name": "clonedFromId",
          "type": "uint256"
        }
      ],
      "payable": false,
      "stateMutability": "view",
      "type": "function"
    },
    {
      "constant": true,
      "inputs": [
        {
          "name": "name",
          "type": "string"
        }
      ],
      "name": "getGen0TokenId",
      "outputs": [
        {
          "name": "",
          "type": "uint256"
        }
      ],
      "payable": false,
      "stateMutability": "view",
      "type": "function"
    }
  ],
  "bytecode": "0x60806040526040805190810160405280600a81526020017f4b75646f73546f6b656e000000000000000000000000000000000000000000008152506040805190810160405280600381526020017f4b444f0000000000000000000000000000000000000000000000000000000000815250816004908051906020019062000088929190620000eb565b508060059080519060200190620000a1929190620000eb565b50505033600b60006101000a81548173ffffffffffffffffffffffffffffffffffffffff021916908373ffffffffffffffffffffffffffffffffffffffff1602179055506200019a565b828054600181600116156101000203166002900490600052602060002090601f016020900481019282601f106200012e57805160ff19168380011785556200015f565b828001600101855582156200015f579182015b828111156200015e57825182559160200191906001019062000141565b5b5090506200016e919062000172565b5090565b6200019791905b808211156200019357600081600090555060010162000179565b5090565b90565b61519e80620001aa6000396000f30060806040526004361061015f576000357c0100000000000000000000000000000000000000000000000000000000900463ffffffff16806306fdde0314610164578063081812fc146101f4578063095ea7b31461026157806318160ddd146102ae57806323b872dd146102d95780632f745c591461034657806339ffaa6d146103a757806342842e0e146105075780634f558e79146105745780634f6ccce7146105b95780636352211e146105fa578063646d978b1461066757806364b433f1146108a757806370a08231146108e7578063715018a61461093e5780637f180db7146109555780638a94e43314610b955780638da5cb5b14610c1b57806395d89b4114610c725780639a17daf114610d025780639dc29fac14610d7f578063a22cb46514610dbf578063b88d4fde14610e0e578063c87b56dd14610ec1578063daa6eb1d14610f67578063e985e9c514610fcd578063f2fde38b14611048575b600080fd5b34801561017057600080fd5b5061017961108b565b6040518080602001828103825283818151815260200191508051906020019080838360005b838110156101b957808201518184015260208101905061019e565b50505050905090810190601f1680156101e65780820380516001836020036101000a031916815260200191505b509250505060405180910390f35b34801561020057600080fd5b5061021f6004803603810190808035906020019092919050505061112d565b604051808273ffffffffffffffffffffffffffffffffffffffff1673ffffffffffffffffffffffffffffffffffffffff16815260200191505060405180910390f35b34801561026d57600080fd5b506102ac600480360381019080803573ffffffffffffffffffffffffffffffffffffffff1690602001909291908035906020019092919050505061116a565b005b3480156102ba57600080fd5b506102c3611330565b6040518082815260200191505060405180910390f35b3480156102e557600080fd5b50610344600480360381019080803573ffffffffffffffffffffffffffffffffffffffff169060200190929190803573ffffffffffffffffffffffffffffffffffffffff1690602001909291908035906020019092919050505061133d565b005b34801561035257600080fd5b50610391600480360381019080803573ffffffffffffffffffffffffffffffffffffffff16906020019092919080359060200190929190505050611454565b6040518082815260200191505060405180910390f35b6104f1600480360381019080803590602001908201803590602001908080601f0160208091040260200160405190810160405280939291908181526020018383808284378201915050505050509192919290803590602001908201803590602001908080601f0160208091040260200160405190810160405280939291908181526020018383808284378201915050505050509192919290803590602001909291908035906020019092919080359060200190929190803590602001908201803590602001908080601f0160208091040260200160405190810160405280939291908181526020018383808284378201915050505050509192919290803590602001908201803590602001908080601f01602080910402602001604051908101604052809392919081815260200183838082843782019150505050505091929192905050506114cb565b6040518082815260200191505060405180910390f35b34801561051357600080fd5b50610572600480360381019080803573ffffffffffffffffffffffffffffffffffffffff169060200190929190803573ffffffffffffffffffffffffffffffffffffffff16906020019092919080359060200190929190505050611a5b565b005b34801561058057600080fd5b5061059f60048036038101908080359060200190929190505050611a93565b604051808215151515815260200191505060405180910390f35b3480156105c557600080fd5b506105e460048036038101908080359060200190929190505050611b04565b6040518082815260200191505060405180910390f35b34801561060657600080fd5b5061062560048036038101908080359060200190929190505050611b3c565b604051808273ffffffffffffffffffffffffffffffffffffffff1673ffffffffffffffffffffffffffffffffffffffff16815260200191505060405180910390f35b34801561067357600080fd5b5061069260048036038101908080359060200190929190505050611bb9565b6040518080602001806020018b81526020018a81526020018981526020018881526020018773ffffffffffffffffffffffffffffffffffffffff1673ffffffffffffffffffffffffffffffffffffffff168152602001806020018060200186815260200185810385528f818151815260200191508051906020019080838360005b8381101561072e578082015181840152602081019050610713565b50505050905090810190601f16801561075b5780820380516001836020036101000a031916815260200191505b5085810384528e818151815260200191508051906020019080838360005b83811015610794578082015181840152602081019050610779565b50505050905090810190601f1680156107c15780820380516001836020036101000a031916815260200191505b50858103835288818151815260200191508051906020019080838360005b838110156107fa5780820151818401526020810190506107df565b50505050905090810190601f1680156108275780820380516001836020036101000a031916815260200191505b50858103825287818151815260200191508051906020019080838360005b83811015610860578082015181840152602081019050610845565b50505050905090810190601f16801561088d5780820380516001836020036101000a031916815260200191505b509e50505050505050505050505050505060405180910390f35b6108e5600480360381019080803573ffffffffffffffffffffffffffffffffffffffff16906020019092919080359060200190929190505050611f63565b005b3480156108f357600080fd5b50610928600480360381019080803573ffffffffffffffffffffffffffffffffffffffff169060200190929190505050612385565b6040518082815260200191505060405180910390f35b34801561094a57600080fd5b50610953612409565b005b34801561096157600080fd5b506109806004803603810190808035906020019092919050505061250e565b6040518080602001806020018b81526020018a81526020018981526020018881526020018773ffffffffffffffffffffffffffffffffffffffff1673ffffffffffffffffffffffffffffffffffffffff168152602001806020018060200186815260200185810385528f818151815260200191508051906020019080838360005b83811015610a1c578082015181840152602081019050610a01565b50505050905090810190601f168015610a495780820380516001836020036101000a031916815260200191505b5085810384528e818151815260200191508051906020019080838360005b83811015610a82578082015181840152602081019050610a67565b50505050905090810190601f168015610aaf5780820380516001836020036101000a031916815260200191505b50858103835288818151815260200191508051906020019080838360005b83811015610ae8578082015181840152602081019050610acd565b50505050905090810190601f168015610b155780820380516001836020036101000a031916815260200191505b50858103825287818151815260200191508051906020019080838360005b83811015610b4e578082015181840152602081019050610b33565b50505050905090810190601f168015610b7b5780820380516001836020036101000a031916815260200191505b509e50505050505050505050505050505060405180910390f35b610c19600480360381019080803590602001908201803590602001908080601f016020809104026020016040519081016040528093929190818152602001838380828437820191505050505050919291929080359060200190929190803573ffffffffffffffffffffffffffffffffffffffff1690602001909291905050506127f1565b005b348015610c2757600080fd5b50610c30612eea565b604051808273ffffffffffffffffffffffffffffffffffffffff1673ffffffffffffffffffffffffffffffffffffffff16815260200191505060405180910390f35b348015610c7e57600080fd5b50610c87612f10565b6040518080602001828103825283818151815260200191508051906020019080838360005b83811015610cc7578082015181840152602081019050610cac565b50505050905090810190601f168015610cf45780820380516001836020036101000a031916815260200191505b509250505060405180910390f35b348015610d0e57600080fd5b50610d69600480360381019080803590602001908201803590602001908080601f0160208091040260200160405190810160405280939291908181526020018383808284378201915050505050509192919290505050612fb2565b6040518082815260200191505060405180910390f35b610dbd600480360381019080803573ffffffffffffffffffffffffffffffffffffffff16906020019092919080359060200190929190505050613027565b005b348015610dcb57600080fd5b50610e0c600480360381019080803573ffffffffffffffffffffffffffffffffffffffff169060200190929190803515159060200190929190505050613855565b005b348015610e1a57600080fd5b50610ebf600480360381019080803573ffffffffffffffffffffffffffffffffffffffff169060200190929190803573ffffffffffffffffffffffffffffffffffffffff16906020019092919080359060200190929190803590602001908201803590602001908080601f0160208091040260200160405190810160405280939291908181526020018383808284378201915050505050509192919290505050613991565b005b348015610ecd57600080fd5b50610eec600480360381019080803590602001909291905050506139d0565b6040518080602001828103825283818151815260200191508051906020019080838360005b83811015610f2c578082015181840152602081019050610f11565b50505050905090810190601f168015610f595780820380516001836020036101000a031916815260200191505b509250505060405180910390f35b610fcb600480360381019080803590602001908201803590602001908080601f016020809104026020016040519081016040528093929190818152602001838380828437820191505050505050919291929080359060200190929190505050613a99565b005b348015610fd957600080fd5b5061102e600480360381019080803573ffffffffffffffffffffffffffffffffffffffff169060200190929190803573ffffffffffffffffffffffffffffffffffffffff169060200190929190505050614191565b604051808215151515815260200191505060405180910390f35b34801561105457600080fd5b50611089600480360381019080803573ffffffffffffffffffffffffffffffffffffffff169060200190929190505050614225565b005b606060048054600181600116156101000203166002900480601f0160208091040260200160405190810160405280929190818152602001828054600181600116156101000203166002900480156111235780601f106110f857610100808354040283529160200191611123565b820191906000526020600020905b81548152906001019060200180831161110657829003601f168201915b5050505050905090565b60006001600083815260200190815260200160002060009054906101000a900473ffffffffffffffffffffffffffffffffffffffff169050919050565b600061117582611b3c565b90508073ffffffffffffffffffffffffffffffffffffffff168373ffffffffffffffffffffffffffffffffffffffff16141515156111b257600080fd5b8073ffffffffffffffffffffffffffffffffffffffff163373ffffffffffffffffffffffffffffffffffffffff1614806111f257506111f18133614191565b5b15156111fd57600080fd5b600073ffffffffffffffffffffffffffffffffffffffff1661121e8361112d565b73ffffffffffffffffffffffffffffffffffffffff1614158061126e5750600073ffffffffffffffffffffffffffffffffffffffff168373ffffffffffffffffffffffffffffffffffffffff1614155b1561132b57826001600084815260200190815260200160002060006101000a81548173ffffffffffffffffffffffffffffffffffffffff021916908373ffffffffffffffffffffffffffffffffffffffff1602179055508273ffffffffffffffffffffffffffffffffffffffff168173ffffffffffffffffffffffffffffffffffffffff167f8c5be1e5ebec7d5bd14f71427d1e84f3dd0314c0f7b2291e5b200ac8c7c3b925846040518082815260200191505060405180910390a35b505050565b6000600880549050905090565b80611348338261428d565b151561135357600080fd5b600073ffffffffffffffffffffffffffffffffffffffff168473ffffffffffffffffffffffffffffffffffffffff161415151561138f57600080fd5b600073ffffffffffffffffffffffffffffffffffffffff168373ffffffffffffffffffffffffffffffffffffffff16141515156113cb57600080fd5b6113d58483614322565b6113df848361448b565b6113e983836146a3565b8273ffffffffffffffffffffffffffffffffffffffff168473ffffffffffffffffffffffffffffffffffffffff167fddf252ad1be2c89b69c2b068fc378daa952ba7f163c4a11628f55a4df523b3ef846040518082815260200191505060405180910390a350505050565b600061145f83612385565b8210151561146c57600080fd5b600660008473ffffffffffffffffffffffffffffffffffffffff1673ffffffffffffffffffffffffffffffffffffffff168152602001908152602001600020828154811015156114b857fe5b9060005260206000200154905092915050565b6000806000806114d9614fef565b6114e1614fef565b600b60009054906101000a900473ffffffffffffffffffffffffffffffffffffffff1673ffffffffffffffffffffffffffffffffffffffff163373ffffffffffffffffffffffffffffffffffffffff1614151561153d57600080fd5b6000600d8e6040518082805190602001908083835b6020831015156115775780518252602082019150602081019050602083039250611552565b6001836020036101000a0380198251168184511680821785525050505050509050019150509081526020016040518091039020541415156115b757600080fd5b6000945033935060009250610140604051908101604052808e81526020018d81526020018c81526020018b81526020018a81526020018681526020018573ffffffffffffffffffffffffffffffffffffffff1681526020018981526020018881526020018481525091506000600c80549050141561188857610140604051908101604052806040805190810160405280600581526020017f64756d6d7900000000000000000000000000000000000000000000000000000081525081526020016040805190810160405280600581526020017f64756d6d790000000000000000000000000000000000000000000000000000008152508152602001600081526020016000815260200160008152602001600081526020018573ffffffffffffffffffffffffffffffffffffffff1681526020016040805190810160405280600581526020017f64756d6d7900000000000000000000000000000000000000000000000000000081525081526020016040805190810160405280600581526020017f64756d6d79000000000000000000000000000000000000000000000000000000815250815260200160008152509050600c819080600181540180825580915050906001820390600052602060002090600a02016000909192909190915060008201518160000190805190602001906117b1929190615059565b5060208201518160010190805190602001906117ce929190615059565b5060408201518160020155606082015181600301556080820151816004015560a0820151816005015560c08201518160060160006101000a81548173ffffffffffffffffffffffffffffffffffffffff021916908373ffffffffffffffffffffffffffffffffffffffff16021790555060e082015181600701908051906020019061185a929190615059565b50610100820151816008019080519060200190611878929190615059565b5061012082015181600901555050505b6001600c839080600181540180825580915050906001820390600052602060002090600a02016000909192909190915060008201518160000190805190602001906118d4929190615059565b5060208201518160010190805190602001906118f1929190615059565b5060408201518160020155606082015181600301556080820151816004015560a0820151816005015560c08201518160060160006101000a81548173ffffffffffffffffffffffffffffffffffffffff021916908373ffffffffffffffffffffffffffffffffffffffff16021790555060e082015181600701908051906020019061197d929190615059565b5061010082015181600801908051906020019061199b929190615059565b506101208201518160090155505003955085600c878154811015156119bc57fe5b90600052602060002090600a0201600901819055506119db338761477a565b85600d8e6040518082805190602001908083835b602083101515611a1457805182526020820191506020810190506020830392506119ef565b6001836020036101000a0380198251168184511680821785525050505050509050019150509081526020016040518091039020819055505050505050979650505050505050565b80611a66338261428d565b1515611a7157600080fd5b611a8d8484846020604051908101604052806000815250613991565b50505050565b60008060008084815260200190815260200160002060009054906101000a900473ffffffffffffffffffffffffffffffffffffffff169050600073ffffffffffffffffffffffffffffffffffffffff168173ffffffffffffffffffffffffffffffffffffffff161415915050919050565b6000611b0e611330565b82101515611b1b57600080fd5b600882815481101515611b2a57fe5b90600052602060002001549050919050565b60008060008084815260200190815260200160002060009054906101000a900473ffffffffffffffffffffffffffffffffffffffff169050600073ffffffffffffffffffffffffffffffffffffffff168173ffffffffffffffffffffffffffffffffffffffff1614151515611bb057600080fd5b80915050919050565b60608060008060008060006060806000611bd1614fef565b600c8c815481101515611be057fe5b90600052602060002090600a02016101406040519081016040529081600082018054600181600116156101000203166002900480601f016020809104026020016040519081016040528092919081815260200182805460018160011615610100020316600290048015611c945780601f10611c6957610100808354040283529160200191611c94565b820191906000526020600020905b815481529060010190602001808311611c7757829003601f168201915b50505050508152602001600182018054600181600116156101000203166002900480601f016020809104026020016040519081016040528092919081815260200182805460018160011615610100020316600290048015611d365780601f10611d0b57610100808354040283529160200191611d36565b820191906000526020600020905b815481529060010190602001808311611d1957829003601f168201915b50505050508152602001600282015481526020016003820154815260200160048201548152602001600582015481526020016006820160009054906101000a900473ffffffffffffffffffffffffffffffffffffffff1673ffffffffffffffffffffffffffffffffffffffff1673ffffffffffffffffffffffffffffffffffffffff168152602001600782018054600181600116156101000203166002900480601f016020809104026020016040519081016040528092919081815260200182805460018160011615610100020316600290048015611e565780601f10611e2b57610100808354040283529160200191611e56565b820191906000526020600020905b815481529060010190602001808311611e3957829003601f168201915b50505050508152602001600882018054600181600116156101000203166002900480601f016020809104026020016040519081016040528092919081815260200182805460018160011615610100020316600290048015611ef85780601f10611ecd57610100808354040283529160200191611ef8565b820191906000526020600020905b815481529060010190602001808311611edb57829003601f168201915b50505050508152602001600982015481525050905080600001519a50806020015199508060400151985080606001519750806080015196508060a0015195508060c0015194508060e00151935080610100015192508061012001519150509193959799509193959799565b611f6b614fef565b600b60009054906101000a900473ffffffffffffffffffffffffffffffffffffffff1673ffffffffffffffffffffffffffffffffffffffff163373ffffffffffffffffffffffffffffffffffffffff16141515611fc757600080fd5b600c82815481101515611fd657fe5b90600052602060002090600a02016101406040519081016040529081600082018054600181600116156101000203166002900480601f01602080910402602001604051908101604052809291908181526020018280546001816001161561010002031660029004801561208a5780601f1061205f5761010080835404028352916020019161208a565b820191906000526020600020905b81548152906001019060200180831161206d57829003601f168201915b50505050508152602001600182018054600181600116156101000203166002900480601f01602080910402602001604051908101604052809291908181526020018280546001816001161561010002031660029004801561212c5780601f106121015761010080835404028352916020019161212c565b820191906000526020600020905b81548152906001019060200180831161210f57829003601f168201915b50505050508152602001600282015481526020016003820154815260200160048201548152602001600582015481526020016006820160009054906101000a900473ffffffffffffffffffffffffffffffffffffffff1673ffffffffffffffffffffffffffffffffffffffff1673ffffffffffffffffffffffffffffffffffffffff168152602001600782018054600181600116156101000203166002900480601f01602080910402602001604051908101604052809291908181526020018280546001816001161561010002031660029004801561224c5780601f106122215761010080835404028352916020019161224c565b820191906000526020600020905b81548152906001019060200180831161222f57829003601f168201915b50505050508152602001600882018054600181600116156101000203166002900480601f0160208091040260200160405190810160405280929190818152602001828054600181600116156101000203166002900480156122ee5780601f106122c3576101008083540402835291602001916122ee565b820191906000526020600020905b8154815290600101906020018083116122d157829003601f168201915b505050505081526020016009820154815250509050600d81600001516040518082805190602001908083835b60208310151561233f578051825260208201915060208101905060208303925061231a565b6001836020036101000a03801982511681845116808217855250505050505090500191505090815260200160405180910390206000905561238083836147d1565b505050565b60008073ffffffffffffffffffffffffffffffffffffffff168273ffffffffffffffffffffffffffffffffffffffff16141515156123c257600080fd5b600260008373ffffffffffffffffffffffffffffffffffffffff1673ffffffffffffffffffffffffffffffffffffffff168152602001908152602001600020549050919050565b600b60009054906101000a900473ffffffffffffffffffffffffffffffffffffffff1673ffffffffffffffffffffffffffffffffffffffff163373ffffffffffffffffffffffffffffffffffffffff1614151561246557600080fd5b600b60009054906101000a900473ffffffffffffffffffffffffffffffffffffffff1673ffffffffffffffffffffffffffffffffffffffff167ff8df31144d9c2f0f6b59d69b8b98abd5459d07f2742c4df920b25aae33c6482060405160405180910390a26000600b60006101000a81548173ffffffffffffffffffffffffffffffffffffffff021916908373ffffffffffffffffffffffffffffffffffffffff160217905550565b600c8181548110151561251d57fe5b90600052602060002090600a0201600091509050806000018054600181600116156101000203166002900480601f0160208091040260200160405190810160405280929190818152602001828054600181600116156101000203166002900480156125c95780601f1061259e576101008083540402835291602001916125c9565b820191906000526020600020905b8154815290600101906020018083116125ac57829003601f168201915b505050505090806001018054600181600116156101000203166002900480601f0160208091040260200160405190810160405280929190818152602001828054600181600116156101000203166002900480156126675780601f1061263c57610100808354040283529160200191612667565b820191906000526020600020905b81548152906001019060200180831161264a57829003601f168201915b5050505050908060020154908060030154908060040154908060050154908060060160009054906101000a900473ffffffffffffffffffffffffffffffffffffffff1690806007018054600181600116156101000203166002900480601f0160208091040260200160405190810160405280929190818152602001828054600181600116156101000203166002900480156127435780601f1061271857610100808354040283529160200191612743565b820191906000526020600020905b81548152906001019060200180831161272657829003601f168201915b505050505090806008018054600181600116156101000203166002900480601f0160208091040260200160405190810160405280929190818152602001828054600181600116156101000203166002900480156127e15780601f106127b6576101008083540402835291602001916127e1565b820191906000526020600020905b8154815290600101906020018083116127c457829003601f168201915b505050505090806009015490508a565b60006127fb614fef565b6000612805614fef565b6000600d886040518082805190602001908083835b60208310151561283f578051825260208201915060208101905060208303925061281a565b6001836020036101000a0380198251168184511680821785525050505050509050019150509081526020016040518091039020549450600c8581548110151561288457fe5b90600052602060002090600a02016101406040519081016040529081600082018054600181600116156101000203166002900480601f0160208091040260200160405190810160405280929190818152602001828054600181600116156101000203166002900480156129385780601f1061290d57610100808354040283529160200191612938565b820191906000526020600020905b81548152906001019060200180831161291b57829003601f168201915b50505050508152602001600182018054600181600116156101000203166002900480601f0160208091040260200160405190810160405280929190818152602001828054600181600116156101000203166002900480156129da5780601f106129af576101008083540402835291602001916129da565b820191906000526020600020905b8154815290600101906020018083116129bd57829003601f168201915b50505050508152602001600282015481526020016003820154815260200160048201548152602001600582015481526020016006820160009054906101000a900473ffffffffffffffffffffffffffffffffffffffff1673ffffffffffffffffffffffffffffffffffffffff1673ffffffffffffffffffffffffffffffffffffffff168152602001600782018054600181600116156101000203166002900480601f016020809104026020016040519081016040528092919081815260200182805460018160011615610100020316600290048015612afa5780601f10612acf57610100808354040283529160200191612afa565b820191906000526020600020905b815481529060010190602001808311612add57829003601f168201915b50505050508152602001600882018054600181600116156101000203166002900480601f016020809104026020016040519081016040528092919081815260200182805460018160011615610100020316600290048015612b9c5780601f10612b7157610100808354040283529160200191612b9c565b820191906000526020600020905b815481529060010190602001808311612b7f57829003601f168201915b5050505050815260200160098201548152505093508360800151878560a001510111151515612bca57600080fd5b868460a001818151019150818152505083600c86815481101515612bea57fe5b90600052602060002090600a02016000820151816000019080519060200190612c14929190615059565b506020820151816001019080519060200190612c31929190615059565b5060408201518160020155606082015181600301556080820151816004015560a0820151816005015560c08201518160060160006101000a81548173ffffffffffffffffffffffffffffffffffffffff021916908373ffffffffffffffffffffffffffffffffffffffff16021790555060e0820151816007019080519060200190612cbd929190615059565b50610100820151816008019080519060200190612cdb929190615059565b506101208201518160090155905050600092505b86831015612ee05783600001518260000181905250836020015182602001819052508360400151826040018181525050836060015182606001818152505060008260800181815250508360a001518260a0018181525050858260c0019073ffffffffffffffffffffffffffffffffffffffff16908173ffffffffffffffffffffffffffffffffffffffff16815250508360e001518260e0018190525083610100015182610100018190525084826101200181815250506001600c839080600181540180825580915050906001820390600052602060002090600a0201600090919290919091506000820151816000019080519060200190612df1929190615059565b506020820151816001019080519060200190612e0e929190615059565b5060408201518160020155606082015181600301556080820151816004015560a0820151816005015560c08201518160060160006101000a81548173ffffffffffffffffffffffffffffffffffffffff021916908373ffffffffffffffffffffffffffffffffffffffff16021790555060e0820151816007019080519060200190612e9a929190615059565b50610100820151816008019080519060200190612eb8929190615059565b5061012082015181600901555050039050612ed3868261477a565b8280600101935050612cef565b5050505050505050565b600b60009054906101000a900473ffffffffffffffffffffffffffffffffffffffff1681565b606060058054600181600116156101000203166002900480601f016020809104026020016040519081016040528092919081815260200182805460018160011615610100020316600290048015612fa85780601f10612f7d57610100808354040283529160200191612fa8565b820191906000526020600020905b815481529060010190602001808311612f8b57829003601f168201915b5050505050905090565b6000600d826040518082805190602001908083835b602083101515612fec5780518252602082019150602081019050602083039250612fc7565b6001836020036101000a0380198251168184511680821785525050505050509050019150509081526020016040518091039020549050919050565b61302f614fef565b6000613039614fef565b600c8481548110151561304857fe5b90600052602060002090600a02016101406040519081016040529081600082018054600181600116156101000203166002900480601f0160208091040260200160405190810160405280929190818152602001828054600181600116156101000203166002900480156130fc5780601f106130d1576101008083540402835291602001916130fc565b820191906000526020600020905b8154815290600101906020018083116130df57829003601f168201915b50505050508152602001600182018054600181600116156101000203166002900480601f01602080910402602001604051908101604052809291908181526020018280546001816001161561010002031660029004801561319e5780601f106131735761010080835404028352916020019161319e565b820191906000526020600020905b81548152906001019060200180831161318157829003601f168201915b50505050508152602001600282015481526020016003820154815260200160048201548152602001600582015481526020016006820160009054906101000a900473ffffffffffffffffffffffffffffffffffffffff1673ffffffffffffffffffffffffffffffffffffffff1673ffffffffffffffffffffffffffffffffffffffff168152602001600782018054600181600116156101000203166002900480601f0160208091040260200160405190810160405280929190818152602001828054600181600116156101000203166002900480156132be5780601f10613293576101008083540402835291602001916132be565b820191906000526020600020905b8154815290600101906020018083116132a157829003601f168201915b50505050508152602001600882018054600181600116156101000203166002900480601f0160208091040260200160405190810160405280929190818152602001828054600181600116156101000203166002900480156133605780601f1061333557610100808354040283529160200191613360565b820191906000526020600020905b81548152906001019060200180831161334357829003601f168201915b505050505081526020016009820154815250509250600d83600001516040518082805190602001908083835b6020831015156133b1578051825260208201915060208101905060208303925061338c565b6001836020036101000a0380198251168184511680821785525050505050509050019150509081526020016040518091039020549150600c828154811015156133f657fe5b90600052602060002090600a02016101406040519081016040529081600082018054600181600116156101000203166002900480601f0160208091040260200160405190810160405280929190818152602001828054600181600116156101000203166002900480156134aa5780601f1061347f576101008083540402835291602001916134aa565b820191906000526020600020905b81548152906001019060200180831161348d57829003601f168201915b50505050508152602001600182018054600181600116156101000203166002900480601f01602080910402602001604051908101604052809291908181526020018280546001816001161561010002031660029004801561354c5780601f106135215761010080835404028352916020019161354c565b820191906000526020600020905b81548152906001019060200180831161352f57829003601f168201915b50505050508152602001600282015481526020016003820154815260200160048201548152602001600582015481526020016006820160009054906101000a900473ffffffffffffffffffffffffffffffffffffffff1673ffffffffffffffffffffffffffffffffffffffff1673ffffffffffffffffffffffffffffffffffffffff168152602001600782018054600181600116156101000203166002900480601f01602080910402602001604051908101604052809291908181526020018280546001816001161561010002031660029004801561366c5780601f106136415761010080835404028352916020019161366c565b820191906000526020600020905b81548152906001019060200180831161364f57829003601f168201915b50505050508152602001600882018054600181600116156101000203166002900480601f01602080910402602001604051908101604052809291908181526020018280546001816001161561010002031660029004801561370e5780601f106136e35761010080835404028352916020019161370e565b820191906000526020600020905b8154815290600101906020018083116136f157829003601f168201915b50505050508152602001600982015481525050905060018160a001818151039150818152505080600c8381548110151561374457fe5b90600052602060002090600a0201600082015181600001908051906020019061376e929190615059565b50602082015181600101908051906020019061378b929190615059565b5060408201518160020155606082015181600301556080820151816004015560a0820151816005015560c08201518160060160006101000a81548173ffffffffffffffffffffffffffffffffffffffff021916908373ffffffffffffffffffffffffffffffffffffffff16021790555060e0820151816007019080519060200190613817929190615059565b50610100820151816008019080519060200190613835929190615059565b50610120820151816009015590505061384e85856147d1565b5050505050565b3373ffffffffffffffffffffffffffffffffffffffff168273ffffffffffffffffffffffffffffffffffffffff161415151561389057600080fd5b80600360003373ffffffffffffffffffffffffffffffffffffffff1673ffffffffffffffffffffffffffffffffffffffff16815260200190815260200160002060008473ffffffffffffffffffffffffffffffffffffffff1673ffffffffffffffffffffffffffffffffffffffff16815260200190815260200160002060006101000a81548160ff0219169083151502179055508173ffffffffffffffffffffffffffffffffffffffff163373ffffffffffffffffffffffffffffffffffffffff167f17307eab39ab6107e8899845ad3d59bd9653f200f220920489ca2b5937696c3183604051808215151515815260200191505060405180910390a35050565b8161399c338261428d565b15156139a757600080fd5b6139b285858561133d565b6139be85858585614909565b15156139c957600080fd5b5050505050565b60606139db82611a93565b15156139e657600080fd5b600a60008381526020019081526020016000208054600181600116156101000203166002900480601f016020809104026020016040519081016040528092919081815260200182805460018160011615610100020316600290048015613a8d5780601f10613a6257610100808354040283529160200191613a8d565b820191906000526020600020905b815481529060010190602001808311613a7057829003601f168201915b50505050509050919050565b6000613aa3614fef565b6000613aad614fef565b6000600d876040518082805190602001908083835b602083101515613ae75780518252602082019150602081019050602083039250613ac2565b6001836020036101000a0380198251168184511680821785525050505050509050019150509081526020016040518091039020549450600c85815481101515613b2c57fe5b90600052602060002090600a02016101406040519081016040529081600082018054600181600116156101000203166002900480601f016020809104026020016040519081016040528092919081815260200182805460018160011615610100020316600290048015613be05780601f10613bb557610100808354040283529160200191613be0565b820191906000526020600020905b815481529060010190602001808311613bc357829003601f168201915b50505050508152602001600182018054600181600116156101000203166002900480601f016020809104026020016040519081016040528092919081815260200182805460018160011615610100020316600290048015613c825780601f10613c5757610100808354040283529160200191613c82565b820191906000526020600020905b815481529060010190602001808311613c6557829003601f168201915b50505050508152602001600282015481526020016003820154815260200160048201548152602001600582015481526020016006820160009054906101000a900473ffffffffffffffffffffffffffffffffffffffff1673ffffffffffffffffffffffffffffffffffffffff1673ffffffffffffffffffffffffffffffffffffffff168152602001600782018054600181600116156101000203166002900480601f016020809104026020016040519081016040528092919081815260200182805460018160011615610100020316600290048015613da25780601f10613d7757610100808354040283529160200191613da2565b820191906000526020600020905b815481529060010190602001808311613d8557829003601f168201915b50505050508152602001600882018054600181600116156101000203166002900480601f016020809104026020016040519081016040528092919081815260200182805460018160011615610100020316600290048015613e445780601f10613e1957610100808354040283529160200191613e44565b820191906000526020600020905b815481529060010190602001808311613e2757829003601f168201915b5050505050815260200160098201548152505093508360800151868560a001510111151515613e7257600080fd5b858460a001818151019150818152505083600c86815481101515613e9257fe5b90600052602060002090600a02016000820151816000019080519060200190613ebc929190615059565b506020820151816001019080519060200190613ed9929190615059565b5060408201518160020155606082015181600301556080820151816004015560a0820151816005015560c08201518160060160006101000a81548173ffffffffffffffffffffffffffffffffffffffff021916908373ffffffffffffffffffffffffffffffffffffffff16021790555060e0820151816007019080519060200190613f65929190615059565b50610100820151816008019080519060200190613f83929190615059565b506101208201518160090155905050600092505b858310156141885783600001518260000181905250836020015182602001819052508360400151826040018181525050836060015182606001818152505060008260800181815250508360a001518260a0018181525050338260c0019073ffffffffffffffffffffffffffffffffffffffff16908173ffffffffffffffffffffffffffffffffffffffff16815250508360e001518260e0018190525083610100015182610100018190525084826101200181815250506001600c839080600181540180825580915050906001820390600052602060002090600a0201600090919290919091506000820151816000019080519060200190614099929190615059565b5060208201518160010190805190602001906140b6929190615059565b5060408201518160020155606082015181600301556080820151816004015560a0820151816005015560c08201518160060160006101000a81548173ffffffffffffffffffffffffffffffffffffffff021916908373ffffffffffffffffffffffffffffffffffffffff16021790555060e0820151816007019080519060200190614142929190615059565b50610100820151816008019080519060200190614160929190615059565b506101208201518160090155505003905061417b338261477a565b8280600101935050613f97565b50505050505050565b6000600360008473ffffffffffffffffffffffffffffffffffffffff1673ffffffffffffffffffffffffffffffffffffffff16815260200190815260200160002060008373ffffffffffffffffffffffffffffffffffffffff1673ffffffffffffffffffffffffffffffffffffffff16815260200190815260200160002060009054906101000a900460ff16905092915050565b600b60009054906101000a900473ffffffffffffffffffffffffffffffffffffffff1673ffffffffffffffffffffffffffffffffffffffff163373ffffffffffffffffffffffffffffffffffffffff1614151561428157600080fd5b61428a81614af7565b50565b60008061429983611b3c565b90508073ffffffffffffffffffffffffffffffffffffffff168473ffffffffffffffffffffffffffffffffffffffff16148061430857508373ffffffffffffffffffffffffffffffffffffffff166142f08461112d565b73ffffffffffffffffffffffffffffffffffffffff16145b8061431957506143188185614191565b5b91505092915050565b8173ffffffffffffffffffffffffffffffffffffffff1661434282611b3c565b73ffffffffffffffffffffffffffffffffffffffff1614151561436457600080fd5b600073ffffffffffffffffffffffffffffffffffffffff166001600083815260200190815260200160002060009054906101000a900473ffffffffffffffffffffffffffffffffffffffff1673ffffffffffffffffffffffffffffffffffffffff161415156144875760006001600083815260200190815260200160002060006101000a81548173ffffffffffffffffffffffffffffffffffffffff021916908373ffffffffffffffffffffffffffffffffffffffff160217905550600073ffffffffffffffffffffffffffffffffffffffff168273ffffffffffffffffffffffffffffffffffffffff167f8c5be1e5ebec7d5bd14f71427d1e84f3dd0314c0f7b2291e5b200ac8c7c3b925836040518082815260200191505060405180910390a35b5050565b600080600061449a8585614bf3565b600760008581526020019081526020016000205492506145066001600660008873ffffffffffffffffffffffffffffffffffffffff1673ffffffffffffffffffffffffffffffffffffffff16815260200190815260200160002080549050614d2190919063ffffffff16565b9150600660008673ffffffffffffffffffffffffffffffffffffffff1673ffffffffffffffffffffffffffffffffffffffff1681526020019081526020016000208281548110151561455457fe5b9060005260206000200154905080600660008773ffffffffffffffffffffffffffffffffffffffff1673ffffffffffffffffffffffffffffffffffffffff168152602001908152602001600020848154811015156145ae57fe5b90600052602060002001819055506000600660008773ffffffffffffffffffffffffffffffffffffffff1673ffffffffffffffffffffffffffffffffffffffff1681526020019081526020016000208381548110151561460a57fe5b9060005260206000200181905550600660008673ffffffffffffffffffffffffffffffffffffffff1673ffffffffffffffffffffffffffffffffffffffff16815260200190815260200160002080548091906001900361466a91906150d9565b50600060076000868152602001908152602001600020819055508260076000838152602001908152602001600020819055505050505050565b60006146af8383614d3a565b600660008473ffffffffffffffffffffffffffffffffffffffff1673ffffffffffffffffffffffffffffffffffffffff168152602001908152602001600020805490509050600660008473ffffffffffffffffffffffffffffffffffffffff1673ffffffffffffffffffffffffffffffffffffffff168152602001908152602001600020829080600181540180825580915050906001820390600052602060002001600090919290919091505550806007600084815260200190815260200160002081905550505050565b6147848282614e92565b600880549050600960008381526020019081526020016000208190555060088190806001815401808255809150509060018203906000526020600020016000909192909190915055505050565b60008060006147e08585614f42565b6000600a600086815260200190815260200160002080546001816001161561010002031660029004905014151561483157600a600085815260200190815260200160002060006148309190615105565b5b600960008581526020019081526020016000205492506148606001600880549050614d2190919063ffffffff16565b915060088281548110151561487157fe5b906000526020600020015490508060088481548110151561488e57fe5b906000526020600020018190555060006008838154811015156148ad57fe5b906000526020600020018190555060088054809190600190036148d091906150d9565b50600060096000868152602001908152602001600020819055508260096000838152602001908152602001600020819055505050505050565b60008061492b8573ffffffffffffffffffffffffffffffffffffffff16614fc0565b151561493a5760019150614aee565b8473ffffffffffffffffffffffffffffffffffffffff1663f0b9e5ba8786866040518463ffffffff167c0100000000000000000000000000000000000000000000000000000000028152600401808473ffffffffffffffffffffffffffffffffffffffff1673ffffffffffffffffffffffffffffffffffffffff16815260200183815260200180602001828103825283818151815260200191508051906020019080838360005b838110156149fc5780820151818401526020810190506149e1565b50505050905090810190601f168015614a295780820380516001836020036101000a031916815260200191505b50945050505050602060405180830381600087803b158015614a4a57600080fd5b505af1158015614a5e573d6000803e3d6000fd5b505050506040513d6020811015614a7457600080fd5b8101908080519060200190929190505050905063f0b9e5ba7c0100000000000000000000000000000000000000000000000000000000027bffffffffffffffffffffffffffffffffffffffffffffffffffffffff1916817bffffffffffffffffffffffffffffffffffffffffffffffffffffffff19161491505b50949350505050565b600073ffffffffffffffffffffffffffffffffffffffff168173ffffffffffffffffffffffffffffffffffffffff1614151515614b3357600080fd5b8073ffffffffffffffffffffffffffffffffffffffff16600b60009054906101000a900473ffffffffffffffffffffffffffffffffffffffff1673ffffffffffffffffffffffffffffffffffffffff167f8be0079c531659141344cd1fd0a4f28419497f9722a3daafe3b4186f6b6457e060405160405180910390a380600b60006101000a81548173ffffffffffffffffffffffffffffffffffffffff021916908373ffffffffffffffffffffffffffffffffffffffff16021790555050565b8173ffffffffffffffffffffffffffffffffffffffff16614c1382611b3c565b73ffffffffffffffffffffffffffffffffffffffff16141515614c3557600080fd5b614c886001600260008573ffffffffffffffffffffffffffffffffffffffff1673ffffffffffffffffffffffffffffffffffffffff16815260200190815260200160002054614d2190919063ffffffff16565b600260008473ffffffffffffffffffffffffffffffffffffffff1673ffffffffffffffffffffffffffffffffffffffff16815260200190815260200160002081905550600080600083815260200190815260200160002060006101000a81548173ffffffffffffffffffffffffffffffffffffffff021916908373ffffffffffffffffffffffffffffffffffffffff1602179055505050565b6000828211151515614d2f57fe5b818303905092915050565b600073ffffffffffffffffffffffffffffffffffffffff1660008083815260200190815260200160002060009054906101000a900473ffffffffffffffffffffffffffffffffffffffff1673ffffffffffffffffffffffffffffffffffffffff16141515614da757600080fd5b8160008083815260200190815260200160002060006101000a81548173ffffffffffffffffffffffffffffffffffffffff021916908373ffffffffffffffffffffffffffffffffffffffff160217905550614e4b6001600260008573ffffffffffffffffffffffffffffffffffffffff1673ffffffffffffffffffffffffffffffffffffffff16815260200190815260200160002054614fd390919063ffffffff16565b600260008473ffffffffffffffffffffffffffffffffffffffff1673ffffffffffffffffffffffffffffffffffffffff168152602001908152602001600020819055505050565b600073ffffffffffffffffffffffffffffffffffffffff168273ffffffffffffffffffffffffffffffffffffffff1614151515614ece57600080fd5b614ed882826146a3565b8173ffffffffffffffffffffffffffffffffffffffff16600073ffffffffffffffffffffffffffffffffffffffff167fddf252ad1be2c89b69c2b068fc378daa952ba7f163c4a11628f55a4df523b3ef836040518082815260200191505060405180910390a35050565b614f4c8282614322565b614f56828261448b565b600073ffffffffffffffffffffffffffffffffffffffff168273ffffffffffffffffffffffffffffffffffffffff167fddf252ad1be2c89b69c2b068fc378daa952ba7f163c4a11628f55a4df523b3ef836040518082815260200191505060405180910390a35050565b600080823b905060008111915050919050565b60008183019050828110151515614fe657fe5b80905092915050565b61014060405190810160405280606081526020016060815260200160008152602001600081526020016000815260200160008152602001600073ffffffffffffffffffffffffffffffffffffffff1681526020016060815260200160608152602001600081525090565b828054600181600116156101000203166002900490600052602060002090601f016020900481019282601f1061509a57805160ff19168380011785556150c8565b828001600101855582156150c8579182015b828111156150c75782518255916020019190600101906150ac565b5b5090506150d5919061514d565b5090565b815481835581811115615100578183600052602060002091820191016150ff919061514d565b5b505050565b50805460018160011615610100020316600290046000825580601f1061512b575061514a565b601f016020900490600052602060002090810190615149919061514d565b5b50565b61516f91905b8082111561516b576000816000905550600101615153565b5090565b905600a165627a7a7230582061d98d4883d9267563613199eb360166baa85671d95885b5976b4d25b159c1220029",
  "source": "pragma solidity ^0.4.24;\n\nimport 'zeppelin-solidity/contracts/token/ERC721/ERC721Token.sol';\nimport 'zeppelin-solidity/contracts/ownership/Ownable.sol';\n\ncontract Kudos is ERC721Token(\"KudosToken\", \"KDO\"), Ownable { \n    struct Kudo {\n        string name;\n        string description;         // move to metadata in IPFS?\n        uint256 rarity;\n        uint256 price;              // price in finney\n        uint256 numClonesAllowed;\n        uint256 numClonesInWild;\n        address ownerAddress;\n        string tags;                // move to metadata in IPFS?\n        string image;               // IPFS Hash\n        uint256 clonedFromId;       // id of gen0 kudos\n    }\n\n    Kudo[] public kudos;\n\n    // constructor (Kudo[] kudos) public {\n    //     // Throw away the first index, and use 0 to check if the data exists\n    //     kudos.push(0);\n    // }\n\n    mapping(string => uint256) internal nameToTokenId;\n\n    function mint(string name, string description, uint256 rarity, uint256 price, uint256 numClonesAllowed, string tags, string image) public payable onlyOwner returns (uint256 tokenId) {\n        // Ensure that each Gen0 Kudos is unique\n        require(nameToTokenId[name] == 0);\n        uint256 _numClonesInWild = 0;\n        address _ownerAddress = msg.sender;\n        uint256 _clonedFromId = 0;\n\n        Kudo memory _kudo = Kudo({name: name, description: description, rarity: rarity, price: price, numClonesAllowed: numClonesAllowed, numClonesInWild: _numClonesInWild, ownerAddress: _ownerAddress, tags: tags, image: image, clonedFromId: _clonedFromId});\n        // The new kudo is pushed onto the array and minted\n        // Note that Solidity uses 0 as a default value when an item is not found in a mapping.\n\n        // If the array is new, skip over the first index.\n        if(kudos.length == 0) {\n            Kudo memory _dummyKudo = Kudo({name: 'dummy', description: 'dummy', rarity: 0, price: 0, numClonesAllowed: 0, numClonesInWild: 0, ownerAddress: _ownerAddress, tags: 'dummy', image: 'dummy', clonedFromId: 0});\n            kudos.push(_dummyKudo);\n        }\n        tokenId = kudos.push(_kudo) - 1;\n        kudos[tokenId].clonedFromId = tokenId;\n\n        _mint(msg.sender, tokenId);\n\n        nameToTokenId[name] = tokenId;\n        // return tokenId;\n    }\n\n    function clone(string name, uint256 numClonesRequested) public payable {\n        // Grab existing Kudo blueprint\n        uint256 gen0KudosId = nameToTokenId[name];\n        Kudo memory _kudo = kudos[gen0KudosId];\n        require(_kudo.numClonesInWild + numClonesRequested <= _kudo.numClonesAllowed);\n\n        // Update original kudo struct in the array\n        _kudo.numClonesInWild += numClonesRequested;\n        kudos[gen0KudosId] = _kudo;\n\n        // Create new kudo, don't let it be cloned\n        for (uint i = 0; i < numClonesRequested; i++) {\n            Kudo memory _newKudo;\n            _newKudo.name = _kudo.name;\n            _newKudo.description = _kudo.description;\n            _newKudo.rarity = _kudo.rarity;\n            _newKudo.price = _kudo.price;\n            _newKudo.numClonesAllowed = 0;\n            _newKudo.numClonesInWild = _kudo.numClonesInWild;\n            _newKudo.ownerAddress = msg.sender;\n            _newKudo.tags = _kudo.tags;\n            _newKudo.image = _kudo.image;\n            _newKudo.clonedFromId = gen0KudosId;\n\n            // Note that Solidity uses 0 as a default value when an item is not found in a mapping.\n            uint256 tokenId = kudos.push(_newKudo) - 1;\n\n            _mint(msg.sender, tokenId);\n        }\n\n    }\n\n    function cloneAndTransfer(string name, uint256 numClonesRequested, address receiver) public payable {\n        // Grab existing Kudo blueprint\n        uint256 gen0KudosId = nameToTokenId[name];\n        Kudo memory _kudo = kudos[gen0KudosId];\n        require(_kudo.numClonesInWild + numClonesRequested <= _kudo.numClonesAllowed);\n\n        // Update original kudo struct in the array\n        _kudo.numClonesInWild += numClonesRequested;\n        kudos[gen0KudosId] = _kudo;\n\n        // Create new kudo, don't let it be cloned\n        for (uint i = 0; i < numClonesRequested; i++) {\n            Kudo memory _newKudo;\n            _newKudo.name = _kudo.name;\n            _newKudo.description = _kudo.description;\n            _newKudo.rarity = _kudo.rarity;\n            _newKudo.price = _kudo.price;\n            _newKudo.numClonesAllowed = 0;\n            _newKudo.numClonesInWild = _kudo.numClonesInWild;\n            _newKudo.ownerAddress = receiver;\n            _newKudo.tags = _kudo.tags;\n            _newKudo.image = _kudo.image;\n            _newKudo.clonedFromId = gen0KudosId;\n\n            // Note that Solidity uses 0 as a default value when an item is not found in a mapping.\n            uint256 tokenId = kudos.push(_newKudo) - 1;\n\n            _mint(receiver, tokenId);\n            // transferFrom(msg.sender, receiver, tokenId);\n        }\n\n    }\n\n    function burnGen0(address owner, uint256 tokenId) public payable onlyOwner {\n        Kudo memory _kudo = kudos[tokenId];\n        delete nameToTokenId[_kudo.name];\n        _burn(owner, tokenId);\n    }\n\n    function burn(address owner, uint256 tokenId) public payable {\n        Kudo memory _kudo = kudos[tokenId];\n        uint256 gen0Id = nameToTokenId[_kudo.name];\n        Kudo memory _gen0Kudo = kudos[gen0Id];\n        _gen0Kudo.numClonesInWild -= 1;\n        kudos[gen0Id] = _gen0Kudo;\n        _burn(owner, tokenId);\n    }\n\n\n    function getKudosById(uint256 tokenId) view public returns (string name, string description, uint256 rarity, uint256 price, uint256 numClonesAllowed, uint256 numClonesInWild, address ownerAddress, string tags, string image, uint256 clonedFromId) {\n        Kudo memory _kudo = kudos[tokenId];\n\n        name = _kudo.name;\n        description = _kudo.description;\n        rarity = _kudo.rarity;\n        price = _kudo.price;\n        numClonesAllowed = _kudo.numClonesAllowed;\n        numClonesInWild = _kudo.numClonesInWild;\n        ownerAddress = _kudo.ownerAddress;\n        tags = _kudo.tags;\n        image = _kudo.image;\n        clonedFromId = _kudo.clonedFromId;\n    }\n\n\n    function getGen0TokenId(string name) view public returns (uint256) {\n        // If the result is 0 it means the key was not found in the mapping.\n        // string memory name = nameToTokenId[name];\n        // if(name == 0) throw;\n        return nameToTokenId[name];\n    }\n\n}",
  "sourcePath": "/Users/jhaas/repos/gitcoin-erc721/contracts/Kudos.sol",
  "compiler": {
    "name": "solc",
    "version": "0.4.24+commit.e67f0147.Emscripten.clang"
  },
  "schemaVersion": "2.0.0",
  "updatedAt": "2018-08-14T22:08:15.181Z"
}