{
  "contractName": "Subscription",
  "abi": [
    {
      "constant": true,
      "inputs": [],
      "name": "requiredGasPrice",
      "outputs": [
        {
          "name": "",
          "type": "uint256"
        }
      ],
      "payable": false,
      "stateMutability": "view",
      "type": "function"
    },
    {
      "constant": true,
      "inputs": [],
      "name": "requiredTokenAmount",
      "outputs": [
        {
          "name": "",
          "type": "uint256"
        }
      ],
      "payable": false,
      "stateMutability": "view",
      "type": "function"
    },
    {
      "constant": true,
      "inputs": [],
      "name": "requiredToAddress",
      "outputs": [
        {
          "name": "",
          "type": "address"
        }
      ],
      "payable": false,
      "stateMutability": "view",
      "type": "function"
    },
    {
      "constant": true,
      "inputs": [],
      "name": "requiredPeriodSeconds",
      "outputs": [
        {
          "name": "",
          "type": "uint256"
        }
      ],
      "payable": false,
      "stateMutability": "view",
      "type": "function"
    },
    {
      "constant": true,
      "inputs": [],
      "name": "requiredTokenAddress",
      "outputs": [
        {
          "name": "",
          "type": "address"
        }
      ],
      "payable": false,
      "stateMutability": "view",
      "type": "function"
    },
    {
      "constant": true,
      "inputs": [],
      "name": "relayer",
      "outputs": [
        {
          "name": "",
          "type": "address"
        }
      ],
      "payable": false,
      "stateMutability": "view",
      "type": "function"
    },
    {
      "constant": true,
      "inputs": [],
      "name": "owner",
      "outputs": [
        {
          "name": "",
          "type": "address"
        }
      ],
      "payable": false,
      "stateMutability": "view",
      "type": "function"
    },
    {
      "constant": true,
      "inputs": [],
      "name": "contractVersion",
      "outputs": [
        {
          "name": "",
          "type": "uint8"
        }
      ],
      "payable": false,
      "stateMutability": "view",
      "type": "function"
    },
    {
      "constant": true,
      "inputs": [
        {
          "name": "",
          "type": "address"
        }
      ],
      "name": "extraNonce",
      "outputs": [
        {
          "name": "",
          "type": "uint256"
        }
      ],
      "payable": false,
      "stateMutability": "view",
      "type": "function"
    },
    {
      "constant": true,
      "inputs": [
        {
          "name": "",
          "type": "bytes32"
        }
      ],
      "name": "nextValidTimestamp",
      "outputs": [
        {
          "name": "",
          "type": "uint256"
        }
      ],
      "payable": false,
      "stateMutability": "view",
      "type": "function"
    },
    {
      "inputs": [
        {
          "name": "_toAddress",
          "type": "address"
        },
        {
          "name": "_tokenAddress",
          "type": "address"
        },
        {
          "name": "_tokenAmount",
          "type": "uint256"
        },
        {
          "name": "_periodSeconds",
          "type": "uint256"
        },
        {
          "name": "_gasPrice",
          "type": "uint256"
        },
        {
          "name": "_version",
          "type": "uint8"
        },
        {
          "name": "_relayer",
          "type": "address"
        }
      ],
      "payable": false,
      "stateMutability": "nonpayable",
      "type": "constructor"
    },
    {
      "payable": true,
      "stateMutability": "payable",
      "type": "fallback"
    },
    {
      "anonymous": false,
      "inputs": [
        {
          "indexed": true,
          "name": "from",
          "type": "address"
        },
        {
          "indexed": true,
          "name": "to",
          "type": "address"
        },
        {
          "indexed": false,
          "name": "tokenAddress",
          "type": "address"
        },
        {
          "indexed": false,
          "name": "tokenAmount",
          "type": "uint256"
        },
        {
          "indexed": false,
          "name": "periodSeconds",
          "type": "uint256"
        },
        {
          "indexed": false,
          "name": "gasPrice",
          "type": "uint256"
        },
        {
          "indexed": false,
          "name": "nonce",
          "type": "uint256"
        }
      ],
      "name": "ExecuteSubscription",
      "type": "event"
    },
    {
      "anonymous": false,
      "inputs": [
        {
          "indexed": true,
          "name": "from",
          "type": "address"
        },
        {
          "indexed": true,
          "name": "to",
          "type": "address"
        },
        {
          "indexed": false,
          "name": "tokenAddress",
          "type": "address"
        },
        {
          "indexed": false,
          "name": "tokenAmount",
          "type": "uint256"
        },
        {
          "indexed": false,
          "name": "periodSeconds",
          "type": "uint256"
        },
        {
          "indexed": false,
          "name": "gasPrice",
          "type": "uint256"
        },
        {
          "indexed": false,
          "name": "nonce",
          "type": "uint256"
        }
      ],
      "name": "CancelSubscription",
      "type": "event"
    },
    {
      "anonymous": false,
      "inputs": [
        {
          "indexed": false,
          "name": "oldOwner",
          "type": "address"
        },
        {
          "indexed": false,
          "name": "newOwner",
          "type": "address"
        }
      ],
      "name": "ownershipChanged",
      "type": "event"
    },
    {
      "constant": false,
      "inputs": [
        {
          "name": "_newOwner",
          "type": "address"
        }
      ],
      "name": "changeOwnership",
      "outputs": [],
      "payable": false,
      "stateMutability": "nonpayable",
      "type": "function"
    },
    {
      "constant": true,
      "inputs": [
        {
          "name": "subscriptionHash",
          "type": "bytes32"
        },
        {
          "name": "gracePeriodSeconds",
          "type": "uint256"
        }
      ],
      "name": "isSubscriptionActive",
      "outputs": [
        {
          "name": "",
          "type": "bool"
        }
      ],
      "payable": false,
      "stateMutability": "view",
      "type": "function"
    },
    {
      "constant": true,
      "inputs": [
        {
          "name": "from",
          "type": "address"
        },
        {
          "name": "to",
          "type": "address"
        },
        {
          "name": "tokenAddress",
          "type": "address"
        },
        {
          "name": "tokenAmount",
          "type": "uint256"
        },
        {
          "name": "periodSeconds",
          "type": "uint256"
        },
        {
          "name": "gasPrice",
          "type": "uint256"
        },
        {
          "name": "nonce",
          "type": "uint256"
        }
      ],
      "name": "getSubscriptionHash",
      "outputs": [
        {
          "name": "",
          "type": "bytes32"
        }
      ],
      "payable": false,
      "stateMutability": "view",
      "type": "function"
    },
    {
      "constant": true,
      "inputs": [
        {
          "name": "subscriptionHash",
          "type": "bytes32"
        },
        {
          "name": "signature",
          "type": "bytes"
        }
      ],
      "name": "getSubscriptionSigner",
      "outputs": [
        {
          "name": "",
          "type": "address"
        }
      ],
      "payable": false,
      "stateMutability": "pure",
      "type": "function"
    },
    {
      "constant": true,
      "inputs": [
        {
          "name": "from",
          "type": "address"
        },
        {
          "name": "to",
          "type": "address"
        },
        {
          "name": "tokenAddress",
          "type": "address"
        },
        {
          "name": "tokenAmount",
          "type": "uint256"
        },
        {
          "name": "periodSeconds",
          "type": "uint256"
        },
        {
          "name": "gasPrice",
          "type": "uint256"
        },
        {
          "name": "nonce",
          "type": "uint256"
        },
        {
          "name": "signature",
          "type": "bytes"
        }
      ],
      "name": "isSubscriptionReady",
      "outputs": [
        {
          "name": "",
          "type": "bool"
        }
      ],
      "payable": false,
      "stateMutability": "view",
      "type": "function"
    },
    {
      "constant": false,
      "inputs": [
        {
          "name": "from",
          "type": "address"
        },
        {
          "name": "to",
          "type": "address"
        },
        {
          "name": "tokenAddress",
          "type": "address"
        },
        {
          "name": "tokenAmount",
          "type": "uint256"
        },
        {
          "name": "periodSeconds",
          "type": "uint256"
        },
        {
          "name": "gasPrice",
          "type": "uint256"
        },
        {
          "name": "nonce",
          "type": "uint256"
        },
        {
          "name": "signature",
          "type": "bytes"
        }
      ],
      "name": "cancelSubscription",
      "outputs": [
        {
          "name": "success",
          "type": "bool"
        }
      ],
      "payable": false,
      "stateMutability": "nonpayable",
      "type": "function"
    },
    {
      "constant": false,
      "inputs": [
        {
          "name": "from",
          "type": "address"
        },
        {
          "name": "to",
          "type": "address"
        },
        {
          "name": "tokenAddress",
          "type": "address"
        },
        {
          "name": "tokenAmount",
          "type": "uint256"
        },
        {
          "name": "periodSeconds",
          "type": "uint256"
        },
        {
          "name": "gasPrice",
          "type": "uint256"
        },
        {
          "name": "nonce",
          "type": "uint256"
        },
        {
          "name": "signature",
          "type": "bytes"
        }
      ],
      "name": "executeSubscription",
      "outputs": [
        {
          "name": "success",
          "type": "bool"
        }
      ],
      "payable": false,
      "stateMutability": "nonpayable",
      "type": "function"
    },
    {
      "constant": false,
      "inputs": [],
      "name": "endContract",
      "outputs": [],
      "payable": false,
      "stateMutability": "nonpayable",
      "type": "function"
    }
  ],
  "bytecode": "0x608060405234801561001057600080fd5b5060405160e080612562833981018060405260e081101561003057600080fd5b810190808051906020019092919080519060200190929190805190602001909291908051906020019092919080519060200190929190805190602001909291908051906020019092919050505086600260006101000a81548173ffffffffffffffffffffffffffffffffffffffff021916908373ffffffffffffffffffffffffffffffffffffffff16021790555085600360006101000a81548173ffffffffffffffffffffffffffffffffffffffff021916908373ffffffffffffffffffffffffffffffffffffffff160217905550846004819055508360058190555082600681905550336000806101000a81548173ffffffffffffffffffffffffffffffffffffffff021916908373ffffffffffffffffffffffffffffffffffffffff16021790555080600160006101000a81548173ffffffffffffffffffffffffffffffffffffffff021916908373ffffffffffffffffffffffffffffffffffffffff1602179055506001600060146101000a81548160ff021916908360ff1602179055505050505050505061239b806101c76000396000f3fe608060405260043610610126576000357c0100000000000000000000000000000000000000000000000000000000900480638da5cb5b116100b2578063bb6e7de911610081578063bb6e7de9146106c7578063c8147865146106de578063d3c576cd146107ab578063d933c06614610914578063ff59bff814610a7d57610126565b80638da5cb5b1461057d578063a0a8e460146105d4578063a3d53d1814610605578063ae702ba41461066a57610126565b8063384c3335116100f9578063384c3335146102e45780636b40bba11461033b5780636f264b2e1461036657806371d22d4d146103bd5780638406c0791461052657610126565b806310d920601461012b57806318f321a31461015657806329d428ca146102685780632af4c31e14610293575b600080fd5b34801561013757600080fd5b50610140610acc565b6040518082815260200191505060405180910390f35b34801561016257600080fd5b506102266004803603604081101561017957600080fd5b8101908080359060200190929190803590602001906401000000008111156101a057600080fd5b8201836020820111156101b257600080fd5b803590602001918460018302840111640100000000831117156101d457600080fd5b91908080601f016020809104026020016040519081016040528093929190818152602001838380828437600081840152601f19601f820116905080830192505050505050509192919290505050610ad2565b604051808273ffffffffffffffffffffffffffffffffffffffff1673ffffffffffffffffffffffffffffffffffffffff16815260200191505060405180910390f35b34801561027457600080fd5b5061027d610af7565b6040518082815260200191505060405180910390f35b34801561029f57600080fd5b506102e2600480360360208110156102b657600080fd5b81019080803573ffffffffffffffffffffffffffffffffffffffff169060200190929190505050610afd565b005b3480156102f057600080fd5b506102f9610c53565b604051808273ffffffffffffffffffffffffffffffffffffffff1673ffffffffffffffffffffffffffffffffffffffff16815260200191505060405180910390f35b34801561034757600080fd5b50610350610c79565b6040518082815260200191505060405180910390f35b34801561037257600080fd5b5061037b610c7f565b604051808273ffffffffffffffffffffffffffffffffffffffff1673ffffffffffffffffffffffffffffffffffffffff16815260200191505060405180910390f35b3480156103c957600080fd5b5061050c60048036036101008110156103e157600080fd5b81019080803573ffffffffffffffffffffffffffffffffffffffff169060200190929190803573ffffffffffffffffffffffffffffffffffffffff169060200190929190803573ffffffffffffffffffffffffffffffffffffffff169060200190929190803590602001909291908035906020019092919080359060200190929190803590602001909291908035906020019064010000000081111561048657600080fd5b82018360208201111561049857600080fd5b803590602001918460018302840111640100000000831117156104ba57600080fd5b91908080601f016020809104026020016040519081016040528093929190818152602001838380828437600081840152601f19601f820116905080830192505050505050509192919290505050610ca5565b604051808215151515815260200191505060405180910390f35b34801561053257600080fd5b5061053b610eeb565b604051808273ffffffffffffffffffffffffffffffffffffffff1673ffffffffffffffffffffffffffffffffffffffff16815260200191505060405180910390f35b34801561058957600080fd5b50610592610f11565b604051808273ffffffffffffffffffffffffffffffffffffffff1673ffffffffffffffffffffffffffffffffffffffff16815260200191505060405180910390f35b3480156105e057600080fd5b506105e9610f36565b604051808260ff1660ff16815260200191505060405180910390f35b34801561061157600080fd5b506106546004803603602081101561062857600080fd5b81019080803573ffffffffffffffffffffffffffffffffffffffff169060200190929190505050610f49565b6040518082815260200191505060405180910390f35b34801561067657600080fd5b506106ad6004803603604081101561068d57600080fd5b810190808035906020019092919080359060200190929190505050610f61565b604051808215151515815260200191505060405180910390f35b3480156106d357600080fd5b506106dc610fd9565b005b3480156106ea57600080fd5b50610795600480360360e081101561070157600080fd5b81019080803573ffffffffffffffffffffffffffffffffffffffff169060200190929190803573ffffffffffffffffffffffffffffffffffffffff169060200190929190803573ffffffffffffffffffffffffffffffffffffffff1690602001909291908035906020019092919080359060200190929190803590602001909291908035906020019092919050505061106e565b6040518082815260200191505060405180910390f35b3480156107b757600080fd5b506108fa60048036036101008110156107cf57600080fd5b81019080803573ffffffffffffffffffffffffffffffffffffffff169060200190929190803573ffffffffffffffffffffffffffffffffffffffff169060200190929190803573ffffffffffffffffffffffffffffffffffffffff169060200190929190803590602001909291908035906020019092919080359060200190929190803590602001909291908035906020019064010000000081111561087457600080fd5b82018360208201111561088657600080fd5b803590602001918460018302840111640100000000831117156108a857600080fd5b91908080601f016020809104026020016040519081016040528093929190818152602001838380828437600081840152601f19601f82011690508083019250505050505050919291929050505061166b565b604051808215151515815260200191505060405180910390f35b34801561092057600080fd5b50610a63600480360361010081101561093857600080fd5b81019080803573ffffffffffffffffffffffffffffffffffffffff169060200190929190803573ffffffffffffffffffffffffffffffffffffffff169060200190929190803573ffffffffffffffffffffffffffffffffffffffff16906020019092919080359060200190929190803590602001909291908035906020019092919080359060200190929190803590602001906401000000008111156109dd57600080fd5b8201836020820111156109ef57600080fd5b80359060200191846001830284011164010000000083111715610a1157600080fd5b91908080601f016020809104026020016040519081016040528093929190818152602001838380828437600081840152601f19601f820116905080830192505050505050509192919290505050611db1565b604051808215151515815260200191505060405180910390f35b348015610a8957600080fd5b50610ab660048036036020811015610aa057600080fd5b810190808035906020019092919050505061208b565b6040518082815260200191505060405180910390f35b60065481565b6000610aef82610ae1856120a3565b6120fb90919063ffffffff16565b905092915050565b60045481565b6000809054906101000a900473ffffffffffffffffffffffffffffffffffffffff1673ffffffffffffffffffffffffffffffffffffffff163373ffffffffffffffffffffffffffffffffffffffff16141515610b5857600080fd5b806000806101000a81548173ffffffffffffffffffffffffffffffffffffffff021916908373ffffffffffffffffffffffffffffffffffffffff1602179055507f5d92051b4a9b6e7154c5be37e18edd17bfd2e650a3a6dbf8c3eded0ef431ff0e336000809054906101000a900473ffffffffffffffffffffffffffffffffffffffff16604051808373ffffffffffffffffffffffffffffffffffffffff1673ffffffffffffffffffffffffffffffffffffffff1681526020018273ffffffffffffffffffffffffffffffffffffffff1673ffffffffffffffffffffffffffffffffffffffff1681526020019250505060405180910390a150565b600260009054906101000a900473ffffffffffffffffffffffffffffffffffffffff1681565b60055481565b600360009054906101000a900473ffffffffffffffffffffffffffffffffffffffff1681565b600080610cb78a8a8a8a8a8a8a61106e565b90506000610cc58285610ad2565b90508a73ffffffffffffffffffffffffffffffffffffffff168173ffffffffffffffffffffffffffffffffffffffff16141515610d4d576040517f08c379a000000000000000000000000000000000000000000000000000000000815260040180806020018281038252602f815260200180612262602f913960400191505060405180910390fd5b3373ffffffffffffffffffffffffffffffffffffffff168b73ffffffffffffffffffffffffffffffffffffffff16141515610df0576040517f08c379a00000000000000000000000000000000000000000000000000000000081526004018080602001828103825260208152602001807f6d73672e73656e646572206973206e6f7420746865207375627363726962657281525060200191505060405180910390fd5b7fffffffffffffffffffffffffffffffffffffffffffffffffffffffffffffffff60076000848152602001908152602001600020819055508973ffffffffffffffffffffffffffffffffffffffff168b73ffffffffffffffffffffffffffffffffffffffff167f51a97a25211c2be9b0b1dd64ee1de490cdb047390e6eba984e6a1d126e6ac4568b8b8b8b8b604051808673ffffffffffffffffffffffffffffffffffffffff1673ffffffffffffffffffffffffffffffffffffffff1681526020018581526020018481526020018381526020018281526020019550505050505060405180910390a360019250505098975050505050505050565b600160009054906101000a900473ffffffffffffffffffffffffffffffffffffffff1681565b6000809054906101000a900473ffffffffffffffffffffffffffffffffffffffff1681565b600060149054906101000a900460ff1681565b60086020528060005260406000206000915090505481565b60007fffffffffffffffffffffffffffffffffffffffffffffffffffffffffffffffff60076000858152602001908152602001600020541415610fa75760009050610fd3565b610fcd82600760008681526020019081526020016000205461220290919063ffffffff16565b42111590505b92915050565b6000809054906101000a900473ffffffffffffffffffffffffffffffffffffffff1673ffffffffffffffffffffffffffffffffffffffff163373ffffffffffffffffffffffffffffffffffffffff1614151561103457600080fd5b6000809054906101000a900473ffffffffffffffffffffffffffffffffffffffff1673ffffffffffffffffffffffffffffffffffffffff16ff5b60008073ffffffffffffffffffffffffffffffffffffffff16600260009054906101000a900473ffffffffffffffffffffffffffffffffffffffff1673ffffffffffffffffffffffffffffffffffffffff1614806111195750600260009054906101000a900473ffffffffffffffffffffffffffffffffffffffff1673ffffffffffffffffffffffffffffffffffffffff168773ffffffffffffffffffffffffffffffffffffffff16145b151561118d576040517f08c379a00000000000000000000000000000000000000000000000000000000081526004018080602001828103825260198152602001807f7265717569726564546f41646472657373204661696c7572650000000000000081525060200191505060405180910390fd5b600073ffffffffffffffffffffffffffffffffffffffff16600360009054906101000a900473ffffffffffffffffffffffffffffffffffffffff1673ffffffffffffffffffffffffffffffffffffffff1614806112375750600360009054906101000a900473ffffffffffffffffffffffffffffffffffffffff1673ffffffffffffffffffffffffffffffffffffffff168673ffffffffffffffffffffffffffffffffffffffff16145b15156112ab576040517f08c379a000000000000000000000000000000000000000000000000000000000815260040180806020018281038252601c8152602001807f7265717569726564546f6b656e41646472657373204661696c7572650000000081525060200191505060405180910390fd5b600060045414806112bd575060045485145b1515611331576040517f08c379a000000000000000000000000000000000000000000000000000000000815260040180806020018281038252601b8152602001807f7265717569726564546f6b656e416d6f756e74204661696c757265000000000081525060200191505060405180910390fd5b60006005541480611343575060055484145b15156113b7576040517f08c379a000000000000000000000000000000000000000000000000000000000815260040180806020018281038252601d8152602001807f7265717569726564506572696f645365636f6e6473204661696c75726500000081525060200191505060405180910390fd5b600060065414806113c9575060065483145b151561143d576040517f08c379a00000000000000000000000000000000000000000000000000000000081526004018080602001828103825260188152602001807f72657175697265644761735072696365204661696c757265000000000000000081525060200191505060405180910390fd5b60197f01000000000000000000000000000000000000000000000000000000000000000260007f010000000000000000000000000000000000000000000000000000000000000002308a8a8a8a8a8a604051602001808a7effffffffffffffffffffffffffffffffffffffffffffffffffffffffffffff19167effffffffffffffffffffffffffffffffffffffffffffffffffffffffffffff19168152600101897effffffffffffffffffffffffffffffffffffffffffffffffffffffffffffff19167effffffffffffffffffffffffffffffffffffffffffffffffffffffffffffff191681526001018873ffffffffffffffffffffffffffffffffffffffff1673ffffffffffffffffffffffffffffffffffffffff166c010000000000000000000000000281526014018773ffffffffffffffffffffffffffffffffffffffff1673ffffffffffffffffffffffffffffffffffffffff166c010000000000000000000000000281526014018673ffffffffffffffffffffffffffffffffffffffff1673ffffffffffffffffffffffffffffffffffffffff166c010000000000000000000000000281526014018573ffffffffffffffffffffffffffffffffffffffff1673ffffffffffffffffffffffffffffffffffffffff166c010000000000000000000000000281526014018481526020018381526020018281526020019950505050505050505050604051602081830303815290604052805190602001209050979650505050505050565b6000600160009054906101000a900473ffffffffffffffffffffffffffffffffffffffff1673ffffffffffffffffffffffffffffffffffffffff163373ffffffffffffffffffffffffffffffffffffffff161415156116c957600080fd5b60006116da8a8a8a8a8a8a8a61106e565b90506116ec8a8a8a8a8a8a8a8a611db1565b1515611743576040517f08c379a00000000000000000000000000000000000000000000000000000000081526004018080602001828103825260418152602001806123096041913960600191505060405180910390fd5b611756864261220290919063ffffffff16565b6007600083815260200190815260200160002081905550600860008b73ffffffffffffffffffffffffffffffffffffffff1673ffffffffffffffffffffffffffffffffffffffff168152602001908152602001600020548411156117f95783600860008c73ffffffffffffffffffffffffffffffffffffffff1673ffffffffffffffffffffffffffffffffffffffff168152602001908152602001600020819055505b60008873ffffffffffffffffffffffffffffffffffffffff166370a082318b6040518263ffffffff167c0100000000000000000000000000000000000000000000000000000000028152600401808273ffffffffffffffffffffffffffffffffffffffff1673ffffffffffffffffffffffffffffffffffffffff16815260200191505060206040518083038186803b15801561189457600080fd5b505afa1580156118a8573d6000803e3d6000fd5b505050506040513d60208110156118be57600080fd5b810190808051906020019092919050505090508873ffffffffffffffffffffffffffffffffffffffff166323b872dd8c8c8b6040518463ffffffff167c0100000000000000000000000000000000000000000000000000000000028152600401808473ffffffffffffffffffffffffffffffffffffffff1673ffffffffffffffffffffffffffffffffffffffff1681526020018373ffffffffffffffffffffffffffffffffffffffff1673ffffffffffffffffffffffffffffffffffffffff1681526020018281526020019350505050602060405180830381600087803b1580156119a857600080fd5b505af11580156119bc573d6000803e3d6000fd5b505050506040513d60208110156119d257600080fd5b8101908080519060200190929190505050508873ffffffffffffffffffffffffffffffffffffffff166370a082318b6040518263ffffffff167c0100000000000000000000000000000000000000000000000000000000028152600401808273ffffffffffffffffffffffffffffffffffffffff1673ffffffffffffffffffffffffffffffffffffffff16815260200191505060206040518083038186803b158015611a7d57600080fd5b505afa158015611a91573d6000803e3d6000fd5b505050506040513d6020811015611aa757600080fd5b8101908080519060200190929190505050888201141515611b13576040517f08c379a000000000000000000000000000000000000000000000000000000000815260040180806020018281038252602681526020018061234a6026913960400191505060405180910390fd5b611b1b612223565b1515611b72576040517f08c379a00000000000000000000000000000000000000000000000000000000081526004018080602001828103825260358152602001806122916035913960400191505060405180910390fd5b8973ffffffffffffffffffffffffffffffffffffffff168b73ffffffffffffffffffffffffffffffffffffffff167f96d296c945eee0618d3cc6f435f4d59f14bcefd708eab22c3de30df20b1347938b8b8b8b8b604051808673ffffffffffffffffffffffffffffffffffffffff1673ffffffffffffffffffffffffffffffffffffffff1681526020018581526020018481526020018381526020018281526020019550505050505060405180910390a36000861115611d9f578873ffffffffffffffffffffffffffffffffffffffff166323b872dd8c33896040518463ffffffff167c0100000000000000000000000000000000000000000000000000000000028152600401808473ffffffffffffffffffffffffffffffffffffffff1673ffffffffffffffffffffffffffffffffffffffff1681526020018373ffffffffffffffffffffffffffffffffffffffff1673ffffffffffffffffffffffffffffffffffffffff1681526020018281526020019350505050602060405180830381600087803b158015611d0357600080fd5b505af1158015611d17573d6000803e3d6000fd5b505050506040513d6020811015611d2d57600080fd5b810190808051906020019092919050505050611d47612223565b1515611d9e576040517f08c379a00000000000000000000000000000000000000000000000000000000081526004018080602001828103825260438152602001806122c66043913960600191505060405180910390fd5b5b60019250505098975050505050505050565b600080611dc38a8a8a8a8a8a8a61106e565b90506000611dd18285610ad2565b905060008973ffffffffffffffffffffffffffffffffffffffff1663dd62ed3e8d306040518363ffffffff167c0100000000000000000000000000000000000000000000000000000000028152600401808373ffffffffffffffffffffffffffffffffffffffff1673ffffffffffffffffffffffffffffffffffffffff1681526020018273ffffffffffffffffffffffffffffffffffffffff1673ffffffffffffffffffffffffffffffffffffffff1681526020019250505060206040518083038186803b158015611ea257600080fd5b505afa158015611eb6573d6000803e3d6000fd5b505050506040513d6020811015611ecc57600080fd5b8101908080519060200190929190505050905060008a73ffffffffffffffffffffffffffffffffffffffff166370a082318e6040518263ffffffff167c0100000000000000000000000000000000000000000000000000000000028152600401808273ffffffffffffffffffffffffffffffffffffffff1673ffffffffffffffffffffffffffffffffffffffff16815260200191505060206040518083038186803b158015611f7a57600080fd5b505afa158015611f8e573d6000803e3d6000fd5b505050506040513d6020811015611fa457600080fd5b810190808051906020019092919050505090508c73ffffffffffffffffffffffffffffffffffffffff168373ffffffffffffffffffffffffffffffffffffffff1614801561201e57508b73ffffffffffffffffffffffffffffffffffffffff168d73ffffffffffffffffffffffffffffffffffffffff1614155b801561203d575060076000858152602001908152602001600020544210155b801561205b5750612057888b61220290919063ffffffff16565b8210155b80156120795750612075888b61220290919063ffffffff16565b8110155b94505050505098975050505050505050565b60076020528060005260406000206000915090505481565b60008160405160200180807f19457468657265756d205369676e6564204d6573736167653a0a333200000000815250601c01828152602001915050604051602081830303815290604052805190602001209050919050565b60006041825114151561211157600090506121fc565b60008060006020850151925060408501519150606085015160001a90507f7fffffffffffffffffffffffffffffff5d576e7357a4501ddfe92f46681b20a08260019004111561216657600093505050506121fc565b601b8160ff161415801561217e5750601c8160ff1614155b1561218f57600093505050506121fc565b60018682858560405160008152602001604052604051808581526020018460ff1660ff1681526020018381526020018281526020019450505050506020604051602081039080840390855afa1580156121ec573d6000803e3d6000fd5b5050506020604051035193505050505b92915050565b600080828401905083811015151561221957600080fd5b8091505092915050565b600080600090503d60008114612240576020811461224957612255565b60019150612255565b60206000803e60005191505b5060008114159150509056fe496e76616c6964205369676e617475726520666f7220737562736372697074696f6e2063616e63656c6c6174696f6e537562736372697074696f6e3a3a65786563757465537562736372697074696f6e205472616e7366657246726f6d206661696c6564537562736372697074696f6e3a3a65786563757465537562736372697074696f6e204661696c656420746f20706179206761732061732066726f6d206163636f756e74537562736372697074696f6e206973206e6f74207265616479206f7220636f6e646974696f6e73206f66207472616e736374696f6e20617265206e6f74206d657445524332302042616c616e636520646964206e6f74206368616e676520636f72726563746c79a165627a7a723058202df60f746d4c742afa80c2f5e3dcb8e55b1f61d5cef42378807b775d5e0a17660029",
  "source": "pragma solidity ^0.5.2;\n\n/*\n  Super Simple Token Subscriptions - https://tokensubscription.com\n  //// Breakin Through @ University of Wyoming ////\n  Austin Thomas Griffith - https://austingriffith.com\n  Building on previous works:\n    https://github.com/austintgriffith/token-subscription\n    https://gist.github.com/androolloyd/0a62ef48887be00a5eff5c17f2be849a\n    https://media.consensys.net/subscription-services-on-the-blockchain-erc-948-6ef64b083a36\n    https://medium.com/gitcoin/technical-deep-dive-architecture-choices-for-subscriptions-on-the-blockchain-erc948-5fae89cabc7a\n    https://github.com/ethereum/EIPs/pull/1337\n    https://github.com/ethereum/EIPs/blob/master/EIPS/eip-1077.md\n    https://github.com/gnosis/safe-contracts\n  Earlier Meta Transaction Demo:\n    https://github.com/austintgriffith/bouncer-proxy\n  Huge thanks, as always, to OpenZeppelin for the rad contracts:\n */\n\nimport \"openzeppelin-solidity/contracts/cryptography/ECDSA.sol\";\nimport \"openzeppelin-solidity/contracts/math/SafeMath.sol\";\nimport \"openzeppelin-solidity/contracts/token/ERC20/ERC20.sol\";\n\n\ncontract Subscription {\n    using ECDSA for bytes32;\n    using SafeMath for uint256;\n\n    //who deploys the contract\n    address payable public owner;\n    uint8 public contractVersion;\n\n    //restrict who can relay the metatx\n    address public relayer;\n\n    // the publisher may optionally deploy requirements for the subscription\n    // so only meta transactions that match the requirements can be relayed\n    address public requiredToAddress;\n    address public requiredTokenAddress;\n    uint256 public requiredTokenAmount;\n    uint256 public requiredPeriodSeconds;\n    uint256 public requiredGasPrice;\n\n\n    // similar to a nonce that avoids replay attacks this allows a single execution\n    // every x seconds for a given subscription\n    // subscriptionHash  => next valid block number\n    mapping(bytes32 => uint256) public nextValidTimestamp;\n\n    //we'll use a nonce for each from but because transactions can go through\n    //multiple times, we allow anything but users can use this as a signal for\n    //uniqueness\n    mapping(address => uint256) public extraNonce;\n\n    event ExecuteSubscription(\n        address indexed from, //the subscriber\n        address indexed to, //the publisher\n        address tokenAddress, //the token address paid to the publisher\n        uint256 tokenAmount, //the token amount paid to the publisher\n        uint256 periodSeconds, //the period in seconds between payments\n        uint256 gasPrice, //the amount of tokens to pay relayer (0 for free)\n        uint256 nonce // to allow multiple subscriptions with the same parameters\n    );\n\n    event CancelSubscription(\n        address indexed from, //the subscriber\n        address indexed to, //the publisher\n        address tokenAddress, //the token address paid to the publisher\n        uint256 tokenAmount, //the token amount paid to the publisher\n        uint256 periodSeconds, //the period in seconds between payments\n        uint256 gasPrice, //the amount of tokens to pay relayer (0 for free)\n        uint256 nonce // to allow multiple subscriptions with the same parameters\n    );\n\n    event ownershipChanged(\n        address oldOwner,\n        address newOwner\n    );\n\n    constructor(\n        address _toAddress,\n        address _tokenAddress,\n        uint256 _tokenAmount,\n        uint256 _periodSeconds,\n        uint256 _gasPrice,\n        uint8 _version,\n        address _relayer\n    ) public {\n        requiredToAddress=_toAddress;\n        requiredTokenAddress=_tokenAddress;\n        requiredTokenAmount=_tokenAmount;\n        requiredPeriodSeconds=_periodSeconds;\n        requiredGasPrice=_gasPrice;\n        owner=msg.sender;\n        relayer=_relayer;\n        contractVersion=1;\n    }\n\n    function changeOwnership(address payable _newOwner)\n      public\n    {\n      require(msg.sender==owner);\n      owner = _newOwner;\n      emit ownershipChanged(msg.sender, owner);\n    }\n\n    // this is used by external smart contracts to verify on-chain that a\n    // particular subscription is \"paid\" and \"active\"\n    // there must be a small grace period added to allow the publisher\n    // or desktop miner to execute\n    function isSubscriptionActive(\n        bytes32 subscriptionHash,\n        uint256 gracePeriodSeconds\n    )\n        external\n        view\n        returns (bool)\n    {\n        if(nextValidTimestamp[subscriptionHash]==uint256(-1)){\n          return false;\n        }\n        return (block.timestamp <=\n                nextValidTimestamp[subscriptionHash].add(gracePeriodSeconds)\n        );\n    }\n\n    // given the subscription details, generate a hash and try to kind of follow\n    // the eip-191 standard and eip-1077 standard from my dude @avsa\n    function getSubscriptionHash(\n        address from, //the subscriber\n        address to, //the publisher\n        address tokenAddress, //the token address paid to the publisher\n        uint256 tokenAmount, //the token amount paid to the publisher\n        uint256 periodSeconds, //the period in seconds between payments\n        uint256 gasPrice, //the amount of tokens or eth to pay relayer (0 for free)\n        uint256 nonce // to allow multiple subscriptions with the same parameters\n    )\n        public\n        view\n        returns (bytes32)\n    {\n        // if there are requirements from the deployer, let's make sure\n        // those are met exactly\n        require( requiredToAddress == address(0) || to == requiredToAddress, \"requiredToAddress Failure\" );\n        require( requiredTokenAddress == address(0) || tokenAddress == requiredTokenAddress, \"requiredTokenAddress Failure\"  );\n        require( requiredTokenAmount == 0 || tokenAmount == requiredTokenAmount, \"requiredTokenAmount Failure\"  );\n        require( requiredPeriodSeconds == 0 || periodSeconds == requiredPeriodSeconds, \"requiredPeriodSeconds Failure\"  );\n        require( requiredGasPrice == 0 || gasPrice == requiredGasPrice, \"requiredGasPrice Failure\"  );\n\n        return keccak256(\n            abi.encodePacked(\n                byte(0x19),\n                byte(0),\n                address(this),\n                from,\n                to,\n                tokenAddress,\n                tokenAmount,\n                periodSeconds,\n                gasPrice\n        ));\n    }\n\n    //ecrecover the signer from hash and the signature\n    function getSubscriptionSigner(\n        bytes32 subscriptionHash, //hash of subscription\n        bytes memory signature //proof the subscriber signed the meta trasaction\n    )\n        public\n        pure\n        returns (address)\n    {\n        return subscriptionHash.toEthSignedMessageHash().recover(signature);\n    }\n\n    //check if a subscription is signed correctly and the timestamp is ready for\n    // the next execution to happen\n    function isSubscriptionReady(\n        address from, //the subscriber\n        address to, //the publisher\n        address tokenAddress, //the token address paid to the publisher\n        uint256 tokenAmount, //the token amount paid to the publisher\n        uint256 periodSeconds, //the period in seconds between payments\n        uint256 gasPrice, //the amount of the token to incentivize the relay network\n        uint256 nonce,// to allow multiple subscriptions with the same parameters\n        bytes memory signature //proof the subscriber signed the meta trasaction\n    )\n        public\n        view\n        returns (bool)\n    {\n        bytes32 subscriptionHash = getSubscriptionHash(\n            from, to, tokenAddress, tokenAmount, periodSeconds, gasPrice, nonce\n        );\n        address signer = getSubscriptionSigner(subscriptionHash, signature);\n        uint256 allowance = ERC20(tokenAddress).allowance(from, address(this));\n        uint256 balance = ERC20(tokenAddress).balanceOf(from);\n\n        return (\n            signer == from &&\n            from != to &&\n            block.timestamp >= nextValidTimestamp[subscriptionHash] &&\n            allowance >= tokenAmount.add(gasPrice) &&\n            balance >= tokenAmount.add(gasPrice)\n        );\n    }\n\n    // you don't really need this if you are using the approve/transferFrom method\n    // because you control the flow of tokens by approving this contract address,\n    // but to make the contract an extensible example for later user I'll add this\n    function cancelSubscription(\n        address from, //the subscriber\n        address to, //the publisher\n        address tokenAddress, //the token address paid to the publisher\n        uint256 tokenAmount, //the token amount paid to the publisher\n        uint256 periodSeconds, //the period in seconds between payments\n        uint256 gasPrice, //the amount of tokens or eth to pay relayer (0 for free)\n        uint256 nonce, //to allow multiple subscriptions with the same parameters\n        bytes memory signature //proof the subscriber signed the meta trasaction\n    )\n        public\n        returns (bool success)\n    {\n        bytes32 subscriptionHash = getSubscriptionHash(\n            from, to, tokenAddress, tokenAmount, periodSeconds, gasPrice, nonce\n        );\n        address signer = getSubscriptionSigner(subscriptionHash, signature);\n\n        //the signature must be valid\n        require(signer == from, \"Invalid Signature for subscription cancellation\");\n\n        //make sure it's the subscriber\n        require(from == msg.sender, 'msg.sender is not the subscriber');\n\n        //nextValidTimestamp should be a timestamp that will never\n        //be reached during the brief window human existence\n        nextValidTimestamp[subscriptionHash]=uint256(-1);\n\n        emit CancelSubscription(\n            from, to, tokenAddress, tokenAmount, periodSeconds, gasPrice, nonce\n        );\n\n        return true;\n    }\n\n    // execute the transferFrom to pay the publisher from the subscriber\n    // the subscriber has full control by approving this contract an allowance\n    function executeSubscription(\n        address from, //the subscriber\n        address to, //the publisher\n        address tokenAddress, //the token address paid to the publisher\n        uint256 tokenAmount, //the token amount paid to the publisher\n        uint256 periodSeconds, //the period in seconds between payments\n        uint256 gasPrice, //the amount of tokens or eth to pay relayer (0 for free)\n        uint256 nonce, // to allow multiple subscriptions with the same parameters\n        bytes memory signature //proof the subscriber signed the meta trasaction\n    )\n        public\n        returns (bool success)\n    {\n        require(msg.sender == relayer);\n        bytes32 subscriptionHash = getSubscriptionHash(\n            from, to, tokenAddress, tokenAmount, periodSeconds, gasPrice, nonce\n        );\n\n        // make sure the subscription is valid and ready\n        require( isSubscriptionReady(from, to, tokenAddress, tokenAmount, periodSeconds, gasPrice, nonce, signature), \"Subscription is not ready or conditions of transction are not met\" );\n\n        //increment the timestamp by the period so it wont be valid until then\n        nextValidTimestamp[subscriptionHash] = block.timestamp.add(periodSeconds);\n\n        //check to see if this nonce is larger than the current count and we'll set that for this 'from'\n        if(nonce > extraNonce[from]){\n          extraNonce[from] = nonce;\n        }\n\n        // now, let make the transfer from the subscriber to the publisher\n        uint256 startingBalance = ERC20(tokenAddress).balanceOf(to);\n        ERC20(tokenAddress).transferFrom(from,to,tokenAmount);\n        require(\n          (startingBalance+tokenAmount) == ERC20(tokenAddress).balanceOf(to),\n          \"ERC20 Balance did not change correctly\"\n        );\n\n        require(\n          checkSuccess(),\n          \"Subscription::executeSubscription TransferFrom failed\"\n          );\n\n\n        emit ExecuteSubscription(\n            from, to, tokenAddress, tokenAmount, periodSeconds, gasPrice, nonce\n        );\n\n        // it is possible for the subscription execution to be run by a third party\n        // incentivized in the terms of the subscription with a gasPrice of the tokens\n        //  - pay that out now...\n        if (gasPrice > 0) {\n            //the relayer is incentivized by a little of the same token from\n            // the subscriber ... as far as the subscriber knows, they are\n            // just sending X tokens to the publisher, but the publisher can\n            // choose to send Y of those X to a relayer to run their transactions\n            // the publisher will receive X - Y tokens\n            // this must all be setup in the constructor\n            // if not, the subscriber chooses all the params including what goes\n            // to the publisher and what goes to the relayer\n            ERC20(tokenAddress).transferFrom(from, msg.sender, gasPrice);\n            require(\n                checkSuccess(),\n                \"Subscription::executeSubscription Failed to pay gas as from account\"\n            );\n        }\n\n        return true;\n    }\n\n    // because of issues with non-standard erc20s the transferFrom can always return false\n    // to fix this we run it and then check the return of the previous function:\n    //    https://github.com/ethereum/solidity/issues/4116\n    /**\n     * Checks the return value of the previous function. Returns true if the previous function\n     * function returned 32 non-zero bytes or returned zero bytes.\n     */\n    function checkSuccess(\n    )\n        private\n        pure\n        returns (bool)\n    {\n        uint256 returnValue = 0;\n\n        /* solium-disable-next-line security/no-inline-assembly */\n        assembly {\n            // check number of bytes returned from last function call\n            switch returndatasize\n\n            // no bytes returned: assume success\n            case 0x0 {\n                returnValue := 1\n            }\n\n            // 32 bytes returned: check if non-zero\n            case 0x20 {\n                // copy 32 bytes into scratch space\n                returndatacopy(0x0, 0x0, 0x20)\n\n                // load those bytes into returnValue\n                returnValue := mload(0x0)\n            }\n\n            // not sure what was returned: dont mark as success\n            default { }\n        }\n\n        return returnValue != 0;\n    }\n\n    //we would like a way for the author to completly destroy the subscription\n    // contract to prevent further transfers\n    function endContract()\n        external\n    {\n      require(msg.sender==owner);\n      selfdestruct(owner);\n    }\n\n    // let's go ahead and revert any ETH sent directly to the contract\n    function () external payable {\n       revert ();\n    }\n}\n",
  "sourcePath": "/Users/danlipert/gitcoin/grants1337/contracts/Subscription.sol",
  "compiler": {
    "name": "solc",
    "version": "0.5.2+commit.1df8f40c.Emscripten.clang"
  },
  "schemaVersion": "3.0.6",
  "updatedAt": "2019-05-22T12:57:22.984Z",
  "devdoc": {
    "methods": {}
  },
  "userdoc": {
    "methods": {}
  }
}